:100000000C944C010C94371E0C9484010C948401C4
:100010000C9484010C9484010C9484010C9484014C
:100020000C9484010C9484010C9499190C94551926
:100030000C94951A0C9484010C9484010C94840102
:100040000C9484010C9484010C9484010C9484011C
:100050000C9484010C94711A0C9484010C94840106
:100060000C9484010C9484010C9484010C948401FC
:100070000C9484010C9484010C9484010C948401EC
:100080000C9484010C9484010C9484010C948401DC
:100090000C9484010C9484010C9484010C948401CC
:1000A0000C9484010C9484010C94840129001E009A
:1000B0001F002000210022002B0014001A0008005D
:1000C00015001700E00004001600070009000A00F0
:1000D000E1001D001B0006001900050000000000E3
:1000E000E200E3002C414A002A00270026002500F8
:1000F000240023003100130012000C0018001C0023
:10010000340033000F000E000D000B0035003800E6
:100110002E002D00100011000000000037003600F6
:100120002A004D0035021E021F022002260227026D
:10013000005C1E001F0020002F0030004C0001005A
:1001400050004F002F023002C15C0100010001008D
:1001500051002F0200000000010001002C002602C7
:100160002A0027022602250224022302010027007A
:100170002600AB00AC00AE0031022E024F00520050
:100180005100500001002D005B005A005900300260
:10019000000000006200010028002702050109801C
:1001A000A101850319012AB700150126B7009501A1
:1001B00075108100C0050C0901A101850419012AEF
:1001C000A002150126A002950175108100C005014D
:1001D0000906A101050719E029E715002501950881
:1001E000750181029501750881010507190029FF34
:1001F000150026FF009506750881000508190129DC
:1002000005950575019102950175039101C00902DB
:100210003B00020100A0FA090400000103010100F3
:100220000921110100012240000705810308000196
:10023000090401000103000000092111010001224D
:1002400032000705820320000112010002000000B5
:100250000810CB564200040102000126034B006542
:10026000006500620069006F0020004900720069AB
:1002700000730020005200650076002E002000343C
:100280000000000E034B0065006500620069006F0E
:10029000000000040309040011241FBECFEFDAE0C0
:1002A000DEBFCDBF04B603FE18C08091A0029091BE
:1002B000A102A091A202B091A3028730904BA74067
:1002C000B04B59F41092A0021092A1021092A20217
:1002D0001092A302E0E0F8E3099511E0A0E0B1E09C
:1002E000E8E0F1E402C005900D92A839B107D9F712
:1002F00022E0A8E9B1E001C01D92A03AB207E1F7FF
:100300000E94BC1A0C945D200C940000E8EDF0E013
:1003100080818E7F80831092E2001092DA0010922A
:10032000E100A0EEB0E08C9181608C9380818F77AA
:10033000808319BCA7EDB0E08C918E7F8C93808177
:100340008F7E80831092860208952091E400309180
:10035000E50095E6A9012091EC00822F817020FF35
:1003600006C08091E80080FF06C080E008952091DB
:10037000E80022FD1AC080919302882389F085301D
:1003800089F08091EB0085FD0FC02091E400309151
:10039000E50042175307F9F29150E1F684E0089521
:1003A00082E0089583E0089581E00895EF92FF923E
:1003B0000F931F93CF937C018B010E94A501C82F3F
:1003C000811117C08091E80085FD0BC08091E80085
:1003D0008E778093E8000E94A501882399F3C82FA7
:1003E00008C0F70181917F018093F100015011094C
:1003F00049F78C2FCF911F910F91FF90EF900895A7
:100400008091950287FF13C08091E80082FF06C0AB
:100410008091E8008B778093E80004C0809193027C
:100420008111F2CF0895809193028823D9F38091AE
:10043000E80080FFF8CF8091E8008E77ECCF982F0E
:100440009093E900242F762F50E0891731F07091B6
:10045000EC002091ED005091F00021FD07C09F5F5E
:10046000973071F78093E90081E008953091EB00B7
:100470003E7F3093EB003091ED003D7F3093ED00F7
:100480003091EB0031603093EB007093EC002093DF
:10049000ED005093F0002091EE0027FDE0CF80E0CA
:1004A0000895B0E0A0E0E7E5F2E00C945E1FC8ED2F
:1004B000D0E088818F7E8883E7EDF0E080818160E5
:1004C000808384E082BF81E08093860288818E7F72
:1004D000888302EE10E0F80110821092DA0081EEBB
:1004E000C82ED12CF601108288818F77888388816D
:1004F0008068888388818F7D888319BC10929302DD
:1005000010929402109292021092910290EEE92EB3
:10051000F12CF70180818B7F8083888181608883C3
:1005200042E060E080E00E941F02F60180818E7F41
:100530008083F801808181608083808188608083EE
:10054000F70180818E7F8083888180618883CDB729
:10055000DEB7E8E00C947A1FFC01CB0120919B02EE
:1005600030919C022617370790F0009729F42091CC
:10057000E8002E772093E80040E0009751F4411105
:1005800008C08091E80082FF31C080E00895C90171
:10059000F3CF209193022223A9F12530A9F12091D4
:1005A000E80023FD2DC02091E80022FDEACF209134
:1005B000E80020FFE2CF3091F3002091F200009795
:1005C00019F02830310558F041E02830310509F0A4
:1005D00040E02091E8002E772093E800CECF4191B3
:1005E0004093F10001972F5F3F4FE9CF8091930235
:1005F000882341F0853041F08091E80083FFC1CF2E
:1006000081E0089582E0089583E0089508950895B3
:100610008091880208959C014FB7F89480917F02E1
:1006200090918002A0918102B09182024FBF821B03
:10063000930B0895A4E0B0E0E0E2F3E00C94641FB3
:100640008FB7F89420917F0230918002409181020F
:100650005091820229833A834B835C838FBF6981E7
:100660007A818B819C812496E2E00C94801F2FB7C5
:10067000F89480917F0290918002A0918102B091C4
:1006800082022FBF089520917C0230917D022817AD
:10069000390771F090937D0280937C02E0917A0299
:1006A000F0917B02309721F00084F185E02D0995CF
:1006B000089520917802309179022817390771F056
:1006C0009093790280937802E0917A02F0917B0214
:1006D000309721F00680F781E02D09950895FC01FF
:1006E000680F791F8FEF91E32191822728E030E096
:1006F00087FF09C0880F892721503109C9F7E617FC
:10070000F70791F70895880FF7CFA8E0B0E0EBE87E
:10071000F3E00C94601F8630A0F5811133C09091F6
:1007200080009F77909380002D98A0918600B091D3
:100730008700282F30E00E94EB1F69837A838B8328
:100740009C8325E030E040E050E00E94C31F890117
:100750009A0180918600909187006CE070E00E9481
:100760009B1F60177107A0F0C80169E070E00E944C
:100770009B1F70938900609388002896E6E00C9494
:100780007C1F85E090918000906890938000CDCF91
:100790008091860090918700E0908600F09087001D
:1007A000E0918600F091870066E070E00E949B1F58
:1007B000060F171F211D311DD901C80125E0880F23
:1007C000991FAA1FBB1F2A95D1F789839A83AB83F0
:1007D000BC83C70166E070E00E949B1F9F0150E050
:1007E00040E0260F371F411D511D69817A818B81A1
:1007F0009C810E94C31F29833A834B835C83E091D1
:100800008600F0918700CA01B9010E948B1FDF01A9
:100810009B01AC010E94FA1F6D837E838F839887B2
:100820009B01AC0169817A818B819C810E948B1F25
:1008300069837A838B839C83DC01CB013FE0B6958F
:10084000A795979587953A95D1F740918600509155
:10085000870070E060E0481759076A077B0720F4BB
:100860008091860090918700BC0183CF80E008953D
:10087000F894E82FE295EF70F0E041A18F7021E04D
:1008800030E0B90102C0660F771F8A95E2F7CB010D
:10089000962F9095942391A392A1892B82A378946B
:1008A00008959091550292FF06C0282F2871283094
:1008B000F9F4877F846093FF06C0282F28712831C0
:1008C000F1F4877E84612091560220FF06C0382F04
:1008D00038713830D9F4877F816021FF06C0282F16
:1008E00028712831D1F4877E816194FD877E089537
:1008F000282F24712430F9F68B7F8860DCCF282FD5
:100900002471243101F78B7E8861DDCF382F31715E
:10091000313019F78E7F8860E0CF282F2171213187
:1009200021F78E7E8861E1CF7A30A8F4663098F4A2
:10093000E62FF0E096E0799FE00DF11D11249CE395
:10094000899FE00DF11D1124EE0FFF1FE455FF4FAD
:1009500085919491089580E090E00895CF93DF937E
:10096000EC01803E910509F460C050F5813391059A
:1009700009F4A6C090F48932910509F49AC08A97C7
:1009800009F4A5C0C130D10509F462C0CE010497B5
:10099000813A910508F45CC054C089339105F1F1A6
:1009A00082389105D9F1C59709F47CC0C83AD105C0
:1009B00008F094C0C53AD10528F3A497D06448C084
:1009C000843E910509F453C068F4823E9105E1F13B
:1009D000833E910509F440C0CE01805E91090897DD
:1009E00080F536C0863E910509F44CC0873E9105DE
:1009F00009F44DC0811523E5920708F095C08115D3
:100A000032E5930708F0FDC0811540E2940708F035
:100A100074C08F3F910551F248F21AC0809155027F
:100A20008370B1F0C0EED0E013C08091550280FD1C
:100A300010C19091560290FF0BC0C3EED0E084FF2E
:100A400007C0D0E0C0E004C08091550282FDF5CF20
:100A5000CE01DF91CF9108958091550282FDFCC0B7
:100A60009091560290FDDECF84FFF2CFEACF8091C5
:100A7000560281FFEDCF80915502C7EED0E084FD94
:100A8000E0CFE6CF8091550283FDF7CFE1CF809193
:100A9000550283FDE4C09091560291FFE5CFC4EE6C
:100AA000D0E0D6CF8091550285FFD2CFC9E2D0E009
:100AB000CFCF8091550285FFCBCFC5E3D0E0C8CF23
:100AC0008091550286FFC4CFCAE2D0E0C1CF8091A9
:100AD000550286FFBDCFC1E3D0E0BACFCF3BD105F1
:100AE00008F07ACFC85AD0E0CC0FDD1FC85ADE4FCD
:100AF0000990D881C02DD464ABCFC11581E5D8074A
:100B000070F4C11590E5D90708F05EC0CE0190548D
:100B10008115904108F095CFDF70D06A99CFDC2F16
:100B2000CC27C16FD06A94CF811539E59307A0F522
:100B3000811548E5940708F079C0C11585E5D80707
:100B4000C8F4C11594E5D90708F06BC0CE018370D5
:100B5000992721E030E002C0220F331F8A95E2F787
:100B6000C695C69540E2C49FE0011124C22BD32B49
:100B7000DA686ECFCE0195558F3F910511F008F0E0
:100B800060CF8C2F0E945104C82FD0E0DC2FCC27DF
:100B9000CC27DF71D0625CCFC1158AE5D80708F495
:100BA0004AC0CE0190568115904208F04ACF8D2F51
:100BB0008F710E94510490E0982F882788279F7199
:100BC0009C012C2BE901E6CFCE0174E09695879528
:100BD0007A95E1F783702C2F26952695237040E2B5
:100BE000249F90011124382B8C2F8370C1E0D0E01A
:100BF00002C0CC0FDD1F8A95E2F7C22BD32BDC6835
:100C000027CF8370992721E030E002C0220F331FE5
:100C10008A95E2F7C695C69580E2C89FE001112447
:100C2000ECCFDC2FCC27C46FD06A12CFD82FCC27C3
:100C3000C06FD06A0DCF8C2F8F700E94510434E0AA
:100C4000D695C7953A95E1F7CF70DC2FC82FD069BC
:100C5000FFCEC9E3D0E0FCCEC2EED0E0F9CEC6EEC6
:100C6000D0E0F6CE0E941A03089580910E02811101
:100C700010920E020895982F909580910D0289236D
:100C800080930D020895ECE9F1E09191891303C07E
:100C9000DF0111971C9291E0E23AF907B1F708954C
:100CA000ACE9B1E0EFEF90E02D91821751F0EF3F0A
:100CB00019F4211101C0E92F9F5F9630A9F7EF3F8A
:100CC00009F408950E2E000CFF0BE656FE4F8283AA
:100CD0000895809102029091D101981301C0089566
:100CE0008F5F8770FACFB0E0A0E0E9E7F6E00C9400
:100CF0005D1F8C01C0905102D0905202E0905302CF
:100D0000F090540280910F0290911002A091110274
:100D1000B0911202C82AD92AEA2AFB2ACFE1D0E0F0
:100D2000BC2ED701C6010C2E04C0B695A795979589
:100D300087950A94D2F780FD09C0219788F7B12CD6
:100D40008B2DCDB7DEB7E9E00C94791FB8018C2F5D
:100D50000E9494040E94AE04019779F3F1CFCF93DF
:100D6000DF93D82FC92F0E9473066D2F7C2F0E940E
:100D700094040E94AE04DF91CF910895292F9A30F8
:100D800080F5863070F590E036E0239F800D911D50
:100D90001124682F677023E0969587952A95E1F7CF
:100DA00025E0289FF001299FF00D1124ED55FE4FFD
:100DB00050E040E080E0219130E0062E02C0369500
:100DC00027950A94E2F721703327042E01C0220FE1
:100DD0000A94EAF7822B4F5F5F4F4530510559F770
:100DE000089580E00895292F9A30A0F5863090F577
:100DF00090E036E0239F800D911D1124282F27704D
:100E000041E001C0440F2A95EAF723E096958795C3
:100E10002A95E1F725E0289FF001299FF00D112484
:100E2000ED55FE4F30E020E070E05191DF01119769
:100E3000CB01022E02C0969587950A94E2F7817045
:100E400081958527842385278C932F5F3F4F2530FD
:100E5000310559F70895FC01808191810E94AF0608
:100E6000282F92959F70963091F060F4925F9F705A
:100E7000923030F481E0203F81F030F4283E30F0B1
:100E800080E008959A5FF3CF243FD1F7089581E081
:100E9000283EE0F3213FA1F7F9CF08958093830224
:100EA000709385026093840280919302843001F5EF
:100EB00082E08093E9008FEF9091E800815095FDEA
:100EC00006C095ED9A95F1F700008111F5CF80915C
:100ED000E80085FF0DC050E040E063E070E083E88B
:100EE00092E00E94D6018091E8008E778093E8001E
:100EF0000895BC0184E00E944E070895BC0183E080
:100F00000E944E070895CF93DF93D82FC92F81E019
:100F10008093E9008FEF9091E800815095FD06C025
:100F200095ED9A95F1F700008111F5CF8091E800D9
:100F300085FF16C050E040E068E070E08D2F9C2FE8
:100F40000E94D6018091E8008E778093E80088E0C7
:100F5000ED2FFC2FA9E8B2E001900D928A95E1F700
:100F6000DF91CF910895B0E0A0E0E9EBF7E00C94B9
:100F70005C1FF82EE92ED62EC72E8A0180914002E2
:100F8000AA24A394B12C8A3018F48AE0A82EB12C9C
:100F9000C1E0D0E06D2D7C2D8F2D9E2DF80109959F
:100FA000811104C02196AC16BD062CF4CDB7DEB776
:100FB000EAE00C94781FCC9F9001CD9F300D300D4E
:100FC000112490E080E045E34A95F1F70000019696
:100FD00082179307C1F7DECF80911D02811110C0E7
:100FE0008091D80080618093D8008AE18A95F1F7DA
:100FF00000C08091D90080FF0AC081E080931D026B
:1010000081E090911D02913009F080E0089582E026
:1010100080931D020E94860110929302F1CF0E94DC
:10102000EC07882359F0E0917A02F0917B02309727
:1010300029F00190F081E02D0995089580E0089550
:10104000682F86E090E00E9413200895282F220F39
:10105000220F220F909177029770922B9093770234
:10106000987F21E009F420E09091770220FB90F92D
:10107000909377020E948503809177020E94200856
:1010800008958091770280FD13C08160809377027C
:10109000813019F489E080937702809177020E9471
:1010A0002008809177028695869586950E94850313
:1010B0000895CF9384E090E00E940520C82F82E23B
:1010C00090E00E940520982F8C2FCF910895A1E0E9
:1010D000B0E0EDE6F8E00C94621F8091770280FFAB
:1010E0004EC0869586958695898390913B020091A6
:1010F0003C0210913D0220913E0230913F02EFB739
:10110000F89440917F025091800260918102709129
:101110008202EFBF401B510B620B730B443651052B
:101120006105710518F411E0981721F180912901EA
:1011300090912A01815D9D4F20912801422F50E01E
:10114000222311F041E050E0BE016F5F7F4F0E940B
:10115000542085E090E00E94DE1E182F882351F075
:101160000E941A0360933C0270933D0280933E02FA
:1011700090933F02812F2196E4E00C947E1F80E043
:10118000B3CFA8E0B0E0E7ECF8E00C94631F409127
:101190002B0250912C0260912D0270912E022FB7DC
:1011A000F89480917F0290918002A0918102B09189
:1011B00082022FBF841B950BA60BB70B11E0843660
:1011C0009105A105B105A8F10E94EC078823B1F1B2
:1011D0000E941A03462F572FBC014E5F5F4F6F4F7F
:1011E0007F4F49835A836B837C8380912101909147
:1011F0002201815D9D4F20912001422F50E025303A
:1012000010F044E050E0BE016F5F7F4F0E94542019
:1012100084E090E00E94DE1E182F882351F00E9487
:101220001A0360932B0270932C0280932D029093EB
:101230002E02812F2896E3E00C947F1F0E941A0350
:101240006D837E838F839887409141025091420243
:1012500060914302709144028D819E81AF81B88577
:10126000480F591F6A1F7B1FB8CFA1E0B0E0EBE326
:10127000F9E00C94561F462E4A01522EC32E370118
:10128000A82E880FBB08C5010E94DE1ED82E882319
:1012900009F476C0C50123E0880F991F2A95E1F76C
:1012A000FC01E050FF4F2381422F50E0222311F038
:1012B00041E050E080509F4FDC0114966D917C918D
:1012C000615D7D4FCE0101960E945420F401408162
:1012D0005181628173812FB7F89480917F02909140
:1012E0008002A0918102B09182022FBF841B950BD6
:1012F000A60BB70B84369105A105B10538F4B301EF
:10130000C8010E946F0399818917D1F1E42C042C44
:10131000000CFF08C7010E94DE1ED82E811106C0F6
:10132000D12C8D2D2196E0E10C94721FB70183E042
:10133000660F771F8A95E1F7FB01E050FF4F43816D
:1013400050E06416750608F4A30160507F4FDB017E
:1013500014966D917C91615D7D4F852D9C2D0E9431
:101360005420B301C8010E946F0399818913D8CF1B
:101370000E941A03F4016083718382839383D1CF27
:10138000A301B801852D9C2D0E945420CACFA5E051
:10139000B0E0EDECF9E00C945E1F6B0185E0E82E07
:1013A000F12C00E312E09E012F5F3F4F43E252E039
:1013B00061E080E00E943509882349F095E0FE0154
:1013C0003196AEE1B2E001900D929A95E1F795E089
:1013D000EEE1F2E0D60101900D929A95E1F72596A3
:1013E000E8E00C947A1FA3E1B0E0E9EFF9E00C9497
:1013F0005B1F1A821982FE01339688E0DF011D927D
:101400008A95E9F786E3E82E81E0F82E10E000E007
:10141000CC24C394D12C26E3A22E21E0B22EF701D6
:1014200081917F018F3F09F445C0F894E82FE29540
:10143000EF70F0E021A18F70A60102C0440F551F8C
:101440008A95E2F7CA01922F982B91A392A18095D9
:10145000892382A3789400C0E0E3F1E031E0912C8D
:1014600021912F3F09F46FC0A22FA295AF70B0E079
:1014700090968C9190E02F7002C0959587952A9553
:10148000E2F780FD60C0832F982A330FAE16BF06A7
:1014900039F7F701319780818F3F11F00E943804AE
:1014A00050EA5A95F1F7E1E0F0E0EC0FFD1FE00F94
:1014B000F11F90820F5F1F4F0530110509F0AFCF6C
:1014C0004AE050E0BE016F5F7F4F85E492E00E94EA
:1014D00047207C01892B49F08AE0FE013196A5E482
:1014E000B2E001900D928A95E1F710915002E1145B
:1014F000F10459F181E0809315020E943703909323
:1015000014028093130280911302909114020E949E
:101510000B03059778F0A5E4B2E0E12FF0E0E75A7D
:10152000FD4F8AE492E02D9121938A179B07D9F70A
:101530001092150281E090E0E114F10451F06396FD
:10154000EBE00C94771F80E09FCF80911502811112
:10155000DACF0E94EC07F82EE0915002882309F4BC
:1015600088C01C861B869E01235F3F4F83E0D90104
:101570001D928A95E9F70E2F10E0075A1D4F8091B2
:1015800040028A3008F03FC047EC59E0BE01655F79
:101590007F4FC8010E94B307882309F444C049EB78
:1015A00050E1BE01655F7F4FC8010E94B3078823E9
:1015B000D1F141EC58E0BE01655F7F4FC8010E9448
:1015C000B307882381F147E658E0BE01655F7F4F8E
:1015D000C8010E94B307882331F110924002809124
:1015E0004F0290E045E050E0BE01655F7F4F875AB3
:1015F0009D4F0E94472021E020931C02892B61F51A
:10160000F12C8F2D9CCF80911602909117020E9491
:101610000B03843F914008F0B7CF80911C028111E9
:1016200012C080E08CCF809140028F3F29F08F5F05
:10163000809340028A3098F20E94370390931702F9
:1016400080931602EACFFE013B9685E0DF011D92F2
:101650008A95E9F710921C02A0914F02B0E0A75AB8
:10166000BD4F85E0FE013B9601900D928A95E1F712
:10167000C8CFF0E0E75AFD4F85E0A0E3B2E001906B
:101680000D928A95E1F765E070E080E392E00E94B8
:101690006F0380932F024091730250E060917202B9
:1016A00070E062597D4FCE010B960E9454208B85CD
:1016B0008093360261E070E0CE010B960E946F03CA
:1016C00080933502C0903702D0903802E090390202
:1016D000F0903A028091180290911902A0911A029A
:1016E000B0911B02C816D906EA06FB06D1F0C092DB
:1016F0001802D0921902E0921A02F0921B020E9484
:10170000EC0781110EC00E941A03C61AD70AE80A14
:10171000F90AC0924102D0924202E0924302F09252
:10172000440280913B020E9485037BCF80910D0291
:1017300090910C02892B80939A0190910E0299232B
:1017400091F0892B80939A0120E08CE991E0FC01D3
:101750003081019631112F5F31E0823A9307B9F75A
:1017600021110E94350648E050E064E072E08AE909
:1017700091E00E944720892BA9F088E0EAE9F1E096
:10178000A4E0B2E001900D928A95E1F7E0917A022F
:10179000F0917B02309731F00280F381E02D8AE9ED
:1017A00091E00995089590E080E00E94590390E04F
:1017B00080E00E94430310920C020E94960B089551
:1017C000609351027093520280935302909354029B
:1017D0000E94D30B0895A4E0B0E0E1EFFBE00C948D
:1017E000621F41E050E060E070E004C0440F551F0C
:1017F000661F771F8A95D2F7409550956095709532
:101800008091510290915202A0915302B0915402E2
:101810008A019B01082319232A233B23C901B8010C
:101820000E94E00B2496E4E00C947E1F909103024A
:101830008095892380930302282F277091F4282F05
:10184000082E000C330B9217130659F09091560294
:1018500092FF07C08595859585950E94EB0B1092A8
:1018600003020895CF93C0915602C2FB992790F9C5
:10187000981791F080FBC2F9C0935602609155020F
:1018800084E090E00E9413206C2F82E290E00E949E
:10189000132082E00E94160CCF910895A4E0B0E0DE
:1018A000E4E5FCE00C94621F41E050E060E070E091
:1018B00004C0440F551F661F771F8A95D2F7809189
:1018C000510290915202A0915302B09154028A01A8
:1018D0009B01082B192B2A2B3B2BC901B8010E9415
:1018E000E00B2496E4E00C947E1F60930F0270934B
:1018F000100280931102909312020E94D30B08955C
:1019000010920D02ECE9F1E086E0DF011D928A956C
:10191000E9F70E94D30B0895AAE2B0E0E2E9FCE007
:101920000C94631F85E992E0FC0101962091F1007F
:10193000208322E08D399207B9F780919602893091
:1019400009F456C0C8F4823009F4B2C0833009F4F7
:1019500081C0813071F18091E80083FF7CC2809169
:101960009502909196029A3008F075C2E92FF0E046
:10197000E15AFF4D0C94E51F8A3009F488C08B3082
:1019800051F780919502813231F7809199029091BF
:101990009A02892B01F78091E800877F8093E80005
:1019A0000E9400028091970280934A010E94800C5D
:1019B000D2CF80919502813A71F68091E800877FBD
:1019C0008093E8008091990290919A02892B61F4AA
:1019D00068E089E892E070E00E94AC028091E80043
:1019E0008B778093E800B7CF60E090E080E0F3CFA2
:1019F00080919502813209F0AECF80919902909149
:101A00009A02029708F0A7CF8091E800877F809321
:101A1000E8008091E80082FF18C09091F300809167
:101A2000F200029731F48091F100813011F086309C
:101A300021F48091F100809388028091E8008B77F7
:101A40008093E8000E94000286CF8091930281116A
:101A5000E0CF81CF80919502813A09F07CCF8091CF
:101A6000990290919A02892B09F075CF8091E80034
:101A7000877F8093E8008091E80080FFFCCF809111
:101A80004A018093F1008091E8008E77D9CF809150
:101A90009502813209F05FCF8091E800877F8093C3
:101AA000E8000E940002809198028093870253CF41
:101AB00080919502813A09F04ECF8091E800877FAE
:101AC0008093E8008091E80080FFFCCF809187023E
:101AD000D8CF803899F0823809F0BDC18091990241
:101AE0008F70873008F0B7C18093E9008091EB00D8
:101AF00085FB882780F91092E90006C08091910249
:101B000090919202911182609091E800977F90935A
:101B1000E8008093F1001092F1008091E8008E7748
:101B200096C1882309F484C1823009F094C1809160
:101B30009702811187C1809199028F702FEF280F32
:101B4000263008F088C18093E9002091EB0020FF47
:101B500079C1933031F48091EB0080628093EB0087
:101B600071C19091EB0090619093EB0021E030E027
:101B700001C0220F8A95EAF72093EA001092EA004A
:101B80008091EB008860EACF811165C110919702C6
:101B90001F778091E3008078812B8093E300809110
:101BA000E800877F8093E8000E9400028091E800AF
:101BB00080FFFCCF8091E30080688093E30082E0A7
:101BC000111183E08093930246C18058823008F05F
:101BD00042C140919702509198024C3D83E05807D2
:101BE000A1F583E08A838AE289834FB7F894DE0106
:101BF000139620E03EE051E2E32FF0E050935700CF
:101C0000E49120FF03C0E295EF703F5FEF708E2FED
:101C100090E0EA30C0F0C7968D939D932F5F2431FA
:101C200059F74FBF8091E800877F8093E8006AE210
:101C300070E0CE0101960E94AC028091E8008B77A3
:101C40008093E80008C1C096E7CF209199023091B7
:101C50009A02852F99278330910509F160F481302C
:101C6000910509F472C0029709F0F5C08BE390E08A
:101C7000EEE0F2E029C08132910509F45AC0829762
:101C800009F0E9C02115310509F469C02130310599
:101C900009F0E1C082E390E0ECE9F1E015C0CA018F
:101CA00099274130B1F18230910509F43AC0892B6E
:101CB00009F0D1C0E3E9F2E0E4918E2F90E0E3E98E
:101CC000F2E0009709F4C7C02091E800277F209335
:101CD000E80020919B0230919C028217930708F440
:101CE0009C0140E02115310509F03EC041113CC086
:101CF0008091E80082FDA1CF80919302882309F4AE
:101D00009CCF853009F499CF8091E80083FFF0CF14
:101D100094CFE3E8F2E0E4918E2F90E0E3E8F2E084
:101D2000D0CFEBE5F2E0E4918E2F90E0EBE5F2E02E
:101D3000C8CF2115310571F02130310509F08BC074
:101D400089E090E0E9E3F2E0BFCF82E190E0E9E4EE
:101D5000F2E0BACF89E090E0E0E2F2E0B5CF80E4D3
:101D600090E0EEECF1E0B0CF80919302882309F48B
:101D700064CF853009F461CF8091E80083FD5DCFA9
:101D80008091E80082FDB4CF8091E80080FFAACF67
:101D90009091F3008091F2002115310519F08830FF
:101DA000910550F041E0089709F040E08091E8008B
:101DB0008E778093E80096CF44914093F10031965E
:101DC000215031090196E8CF803809F044C0809154
:101DD000E800877F8093E800809194028093F1006F
:101DE0009CCE811138C0109197021230A0F58091DD
:101DF000E800877F8093E800109394020E9400021D
:101E0000112311F084E005C08091E30087FDFACF33
:101E100081E08093930242E061EC81E00E941F0226
:101E200042E261EC82E00E941F028091930213C0A3
:101E300080919702813079F481E0933009F080E05D
:101E4000809392021092E9008091E800877F80934E
:101E5000E8000E9400028091E80083FF0AC08091A0
:101E6000E800877F8093E8008091EB008062809398
:101E7000EB00AA96E3E00C947F1F0E94800C2FEFEA
:101E800084E39CE0215080409040E1F700C00000D6
:101E900088E19CE00FB6F894A895809360000FBE8F
:101EA00090936000FFCF882321F00E943B060E94A0
:101EB000960B0895882339F090910D02892B809319
:101EC0000D020E94960B0895882309F44DC08238B4
:101ED00079F40E940F0881FF47C089E30E945006F1
:101EE0000E94960B89E30E9443060E94960B089578
:101EF000833859F40E940F0880FF36C083E50E94A2
:101F000050060E94960B83E5EECF843859F40E9468
:101F10000F0882FF29C087E40E9450060E94960B9A
:101F200087E4E1CF9CEF980F913AE8F290E2980FA6
:101F3000983050F4877091E001C0990F8A95EAF7C4
:101F4000892F0E943B06D1CF9BE5980F933028F450
:101F500090E080E00E9459030895885A873120F468
:101F600090E080E00E9443030895CF93C82F882318
:101F7000C9F08238C9F40E940F0881FD13C089E3BB
:101F80000E9450060E94960B2FEF31EE84E0215004
:101F900030408040E1F700C0000089E30E94430622
:101FA0000E94960BCF9108958338A1F40E940F08E8
:101FB00080FDF8CF83E50E9450060E94960B9FEFAC
:101FC00021EE34E0915020403040E1F700C00000A5
:101FD00083E5E4CF8438A1F40E940F0882FDE2CFAC
:101FE00087E40E9450060E94960B8FEF91EE24E04A
:101FF000815090402040E1F700C0000087E4CECF40
:102000008CEF8C0F813A70F4ECE9F1E082EA91E018
:102010002191C21791F18E179F07D1F78C2F0E9443
:102020005006BECF80E28C0F883068F4C77021E084
:1020300030E001C0220FCA95EAF780910D02822B91
:1020400080930D02ADCF8BE58C0F833038F42C2FAD
:102050002452330BC9010E945903A4CFC85AC73177
:1020600008F0A0CFEC2FF0E0EE0FFF1FE85AFE4F74
:10207000808191810E94430395CF8C2F0E9443065B
:102080000E94960BCBCFCF93C82F0E94B50F8C2FF9
:102090000E94640FCF910895FF920F931F93CF93E7
:1020A000DF93C62FD42F122FFC0182818823A9F041
:1020B00060939F020E94370390939E0280939D023B
:1020C000C77081E001C0880FCA95EAF70E945A0FD5
:1020D000CDB7DEB7E5E00C947D1F80919F026813B9
:1020E00030C080919D0290919E020E940B03883C1B
:1020F000910538F500E20D0FCD17A9F0C770FF2448
:10210000F3948F2D01C0880FCA95EAF70E94530FF0
:10211000083048F48D2F877001C0FF0C8A95EAF7CC
:102120008F2D0E945A0F812F0E944310083080F695
:10213000D77081E001C0880FDA95EAF70E94530F4B
:10214000C7CFC77081E001C0880FCA95EAF7F6CF04
:10215000811108C089EA611101C08AEA0E94431016
:1021600080E008958130E1F78EE46111F7CF8BE4D0
:10217000F5CFA1E0B0E0EFEBF0E10C945D1FEE24B1
:10218000E394F12C06E312E09E012F5F3F4F47E2FC
:1021900052E063E082E00E943509082F882339F17C
:1021A000D12C80E01DC0C0905802CD0C2C2D30E009
:1021B000A90142595D4F7A01E1E0F0E0EC0FFD1F0B
:1021C000ED0DF11D1081FA019081191BB12E1B1428
:1021D0009CF0912F17FD90E0191B111118C0D3949A
:1021E00090915702D916F8F281110E943206802F81
:1021F0002196E9E00C94791FBA94F70180818F5FF2
:10220000808360E08C2D0E94A810802FE0CF1F5F9C
:10221000F70180818150808361E08C2D0E94A8109D
:10222000802FDBCF68EE7EEF90E080E00E943120CF
:1022300060E082E090E00E94132060E083E090E0A4
:102240000E94132010920F0210921002109211029D
:102250001092120260E084E090E00E94132064E09B
:1022600082E290E00E94132060E085E090E00E940E
:10227000132060E086E090E00E9413206FEF87E07B
:1022800090E00E94132040E050E0BA0188E090E026
:102290000E94252060E08DE090E00E94132040E045
:1022A00050E0BA0188E190E00E94252060E087E1DB
:1022B00090E00E94132040E050E0BA018CE190E0F1
:1022C0000E94252070E060E080E290E00E943120D2
:1022D00040E050E0BA0188E190E00E9425200E9491
:1022E000410883E00E94260840E050E0BA018FE0F8
:1022F00090E00E94252040E050E0BA0183E190E0A8
:102300000E9425200895A9E0B0E0E9E8F1E10C94ED
:102310005B1F7C01FC0183819481892B31F08081DA
:10232000918189238F3F09F0DEC42996EBE00C945C
:10233000771F0E947306182F682F89819A810E9447
:10234000F30669817A81812F0E9494048C01F70140
:1023500082810E3AFDE51F0779F10F3A2DE512074C
:1023600009F449C0811151C0043FFCE51F0709F47D
:1023700014C108F0F7C0093D3CE5130709F409C191
:102380000A3D4CE5140709F410C126E241EE61EE66
:10239000083D5CE5150709F4F8C081114DC0063110
:1023A0002CE5120709F0C7C48091A2018111EBC18D
:1023B00089E20E94430614C1882359F061E083E05A
:1023C00090E00E94132061E070E080E090E00E94C5
:1023D000750C80910302877009F4A7CFF701828101
:1023E000882309F4A2CF8091560282FF9ECF82E01B
:1023F0000E94160C9ACF882321F081E00E944E0C97
:10240000E8CF81E00E94EB0BE4CF0F3B3CE51307E4
:1024100009F483C008F042C00D3B5CE5150709F4E0
:102420005CC00E3B6CE5160709F45BC085E00C3B15
:102430007CE5170709F452C010929F020236EDE5C1
:102440001E0761F008F0CFC006312CE5120708F036
:10245000AFC002303CE5130708F469C40E94590874
:10246000909356028093550206315CE5150708F0FB
:10247000D2C002306CE5160708F0C0C0609155026A
:102480001091560284E090E00E941320612F82E2B6
:1024900090E00E9413200E94800C9BCF003C9CE5A2
:1024A000190709F44EC0013CECE51E0709F05CCFAA
:1024B00090917702892F8695869586958F5F8F718B
:1024C0009770863008F04BC0880F880F880F892BD3
:1024D00080937702809177020CC080E00E942608EA
:1024E00078CF80917702982F987F79F088508093E9
:1024F0007702887F91E009F490E08091770290FB69
:1025000080F9809377020E94200880917702869557
:10251000869586950E9485035CCF80917702982FDF
:10252000969596959695883240F49F5F990F990FEE
:10253000990F8770892B8093770280917702816051
:10254000E0CF8091770280FF07C08E7F8093770273
:102550000E94200880E0DECF0E9441083ACF90938D
:102560007702B8CF063F6CE51607D9F027E245EEB3
:1025700066EE073F7CE5170741F027E245EE64EE83
:10258000053F9CE5190709F008CFC7010E944C10D0
:1025900020CF27E245EE65EEF8CF26E241EE60EE71
:1025A000F4CF26E241EE62EEF0CF28E241E0F3CF35
:1025B000C8018B5F9C45099708F450CF0631FCE5B4
:1025C0001F0709F0A1C380910D028A7A91E009F4F6
:1025D00090E09093A2018111D4C089E20E9450063C
:1025E0000E94960BF6CE063A4DE5140709F436CF55
:1025F000083A1D4509F09FC30E943D0FF801E350C2
:10260000FC45809155028160E331F10538F5E759C9
:10261000FF4D0C94E51F04307DE5170778F40B3F60
:102620008CE5180708F42ACFF801EC5FFC45E83088
:10263000F10518F5E458FF4D0C94E51F02369DE5B1
:10264000190709F497C090915502892F8E7F90FF4A
:102650008160063AEDE51E0709F010CF8093550220
:102660000DCF809155028260F9CF80915502846030
:10267000F5CF809155028860F1CF8091560281603C
:1026800080935602FBCE809156028260F9CF8091F2
:1026900055028061E3CF809155028062DFCF809147
:1026A00055028064DBCF0E94800C809155028068C7
:1026B000D5CF809155028C60D1CF80915602836036
:1026C000DFCF809155028E7FC9CF809155028D7FDB
:1026D000C5CF809155028B7FC1CF80915502877FF6
:1026E000BDCF809156028E7FCBCF809156028D7FD9
:1026F000C7CF809155028F7EB1CF809155028F7DDB
:10270000ADCF809155028F7BA9CF0E94800C809124
:1027100055028F77A3CF80915502837F9FCF809101
:1027200056028C7FADCF8091550282FB992790F99C
:1027300021E0922790FB82F990FB83F98FCF809163
:102740005602982F909591708E7F892B90FB81F97E
:1027500097CF0E94800C90915502892F97FB87F9A3
:1027600080587CCF61E08EE090E00E94132086CEFE
:1027700060E0F9CF90915502892F8F7E94FF8061A0
:102780006DCF85E32BCF85E314CE0D35100709F00F
:102790002FCF8091560282FB882780F991E089270C
:1027A0000E94320CC8C20E94800C7FEF84E39CE040
:1027B000715080409040E1F700C0000081E08093BC
:1027C000E00080E28093D8001092C900EFE1FEE4BF
:1027D0003197F1F700C0000087E090EBDC018093B7
:1027E000A0029093A102A093A202B093A30288E159
:1027F0009CE00FB6F894A895809360000FBE90936C
:102800006000FFCF0E941211F7CEC6010E94BE06E3
:10281000182FA0C244E0D41609F4D3C0ED2DE8501F
:10282000FF0B349710F40E940F08CC20A9F0809180
:10283000030280FD11C0F70112828595859585956B
:102840000E944E0CC7010E9483118091030285955E
:10285000859585950E94EB0B85E0F701DE011196C9
:1028600001900D928A95E1F709811A81C8010E94B1
:10287000BE06B8010E94940458CD59E0D51609F45B
:10288000A8C186E08D0D8F70823040F6802F62EFF8
:102890009612AEC1812F8F71B110A7C10E944E0C4C
:1028A000BDCF882311F01295107F802FBB20B9F087
:1028B000112369F090E2900F983010F0011109C0D7
:1028C00080910D02182B10930D020E94960B802F01
:1028D0002DC080910C02182B10930C02F6CF0E9491
:1028E000640F112309F49ACF005E083010F09110A4
:1028F00004C0812F0E943B0606C0109580910C02F7
:10290000182310930C020E94960B88CF2091560238
:1029100022FD16C0BB2069F0112339F080910D0211
:10292000182B10930D020E94960B80E00E94B50FA9
:1029300075CF80E00E94640F112309F46FCFD9CFC7
:10294000BB20A1F090910E02812F892BA11003C012
:102950000E945A0F63CFE1E0AE12FACF22FF5ECFA2
:10296000981709F45BCF80930E0258CFA11006C0D0
:102970000E943506812F0E94530F50CFF1E0AF1611
:1029800009F44CCFF5CFBB2031F005E00A1508F46F
:1029900045CF812FDDCF24E02A1508F43FCFEACFC1
:1029A000AA2041F3093349F4FFEF17EE23E0F15079
:1029B00010402040E1F700C00000802F0E94640F0B
:1029C0002DCF812F86958695837061F0813009F037
:1029D00025CFC8019370B11002C090E080E00E9442
:1029E00043031CCFC8019370B11002C090E080E097
:1029F0000E94590313CF812F837009F072C0B11068
:102A00000DCF202F229526952770220F220F402FC1
:102A10004F7050E070E060E0022E04C0440F551F7C
:102A2000661F771F0A94D2F780E090E0DC0104FF74
:102A30000FC08FE090E0A0E0B0E004C0880F991FC5
:102A4000AA1FBB1F2A95D2F780959095A095B095A7
:102A5000E12FE695E695E370E23051F1E33009F1BC
:102A600000910F0210911002209111023091120278
:102A7000E13099F0842B952BA62BB72BAC01BD012F
:102A800040235123622373234E835F8368877987B2
:102A9000CB01BA010E94750CC1CE402B512B622B89
:102AA000732B8A019B01082B192B2A2B3B2B12C05D
:102AB000842B952BA62BB72B40910F02509110021F
:102AC00060911102709112028C019D01042715275B
:102AD000262737270E831F8328873987C901B80126
:102AE000D9CF8695BB2011F0812F8170882309F4FE
:102AF00095CE202F229526952770220F220F402F4A
:102B00004F7050E070E060E0022E04C0440F551F8B
:102B1000661F771F0A94D2F780E090E0DC0104FF83
:102B20000FC08FE090E0A0E0B0E004C0880F991FD4
:102B3000AA1FBB1F2A95D2F780959095A095B095B6
:102B4000E12FE695E695E370E23081F1E330F9F0AC
:102B5000009151021091520220915302309154027F
:102B6000E13089F0842B952BA62BB72BAC01BD014E
:102B700040235123622373234E835F8368877987C1
:102B8000CB01BA0110C0402B512B622B732B8A0151
:102B90009B01082B192B2A2B3B2B0E831F83288785
:102BA0003987C901B8010E94E00B38CE842B952BE0
:102BB000A62BB72B409151025091520260915302C3
:102BC000709154028C019D01042715272627372771
:102BD000E4CF1F70BB2029F0812F0E944E0C802F64
:102BE000B7CE802F0E94530F812F0E94EB0B16CE81
:102BF00022EF291570F030EF9316D1F041EF9416C3
:102C000091F0BB2009F45FC0A11061CE812F8F71BC
:102C100045CE53EF951621F164EF9612F2CF8091D5
:102C2000560282FD32C0812F8F71BB20F1F236CE69
:102C3000BB2089F074E07A1508F4F0CD1F7181E0B3
:102C400090E0A0E0B0E004C0880F991FAA1FBB1F4E
:102C50001A95D2F7AFCF25E02A1508F4DFCDEECFD5
:102C600060E070E0CB01BB2009F49DCF1F7181E0D3
:102C700090E0A0E0B0E0AC01BD0104C0440F551FDE
:102C8000661F771F1A95D2F777CFBB2089F01F7187
:102C9000812F0E944E0C8091560282FF07C058E09F
:102CA000159FC0011124836080930302812FF6CD0C
:102CB00081E00E94160C61E06A1508F0AFCD82E059
:102CC0000E94160CABCDAA2059F0893309F075CEBD
:102CD0007FEF87EE93E0715080409040E1F76BCE3C
:102CE000812F8F7182CF85E0DE01119601900D92C8
:102CF0008A95E1F7F701228189819A81211119CB07
:102D00000E94BE06182F1DCB80E00C353DE5130751
:102D100009F446CD08F039CD0F3D2CE5120709F432
:102D200071CD81E00B353DE5130709F439CD01156F
:102D30001C4509F438CDF7018281C080D1808823F9
:102D400009F463CDC6010E947306182F682FC601CF
:102D50000E94F306B601812F0E9494040E94AE04E3
:102D60008C01982EF701B280A580A2949FE0A92241
:102D7000809103028770C1F0CB2CBB20B1F0812F72
:102D8000807F803421F080E2800F883068F080916D
:102D9000560282FF09C082E00E94160C8091030255
:102DA0008770CC24C3948111C12CD12ED2948FE092
:102DB000D822F8E0DF1609F41ECEFD1508F45DCD2B
:102DC00023E02D1508F426CD812F807F1F7031E080
:102DD0003D1508F066CD803211F01295107F9920D4
:102DE00009F494CD71E0971609F4CDCDBB2009F418
:102DF000D7CDAA2009F4CDCDF701858180FF67CD1D
:102E00008F708583C6CD1F93CF93DF938091D001C0
:102E1000807F09F049C08091CD01882309F444C026
:102E200080910202D091D1016091CB017091CC01CF
:102E3000A091CE01B091CF01C62FC72316E0D817BD
:102E400099F190E0109711F0CF3F19F40196877037
:102E5000F6CF189F9001199F300D1124F901EE5201
:102E6000FE4F41814713F2CF40814613EFCF42819D
:102E70004111ECCF438154814A1B5B0B483C510507
:102E800028F78091D0018F7080618093D001F90183
:102E9000E952FE4F80818F70806180838BEC91E0DE
:102EA0000E9483110E946906DF91CF911F910895BE
:102EB000ABE0B0E0EEE5F7E10C945C1F8C0185E03F
:102EC000F801DE01179601900D928A95E1F7F8015D
:102ED000E2808BECA82E81E0B82E6091CE0170913B
:102EE000CF016115710509F40EC19091CB0140919C
:102EF000CC01842F89238F3F09F405C120813181C2
:102F0000C380D480F090CD01F601E61BF70BFF20C3
:102F100009F4C4C08091D001582F507FE83CF105DE
:102F200008F09FC051116BC0FE2C431314C09213C4
:102F300012C0E11010C08F7080618093D001C50174
:102F40000E9483118091D001F80185838F2D2B96EB
:102F5000EAE00C94781FC114D10429F0822F832356
:102F60008F3F09F0EBC080E0F82FF170DF2EE09189
:102F700002024091D10156E080FD1CC0EE2031F3E9
:102F80008091D00181608093D001F12CDFCF8E2F12
:102F900090E05E9FF0011124EE52FE4F61813613E6
:102FA00006C06081261303C06281E612E7CFFC01F0
:102FB0003196E770E413EBCF2F8338878F819885A4
:102FC0000E94AF06292F22952F70903260F0225F69
:102FD0002F70223078F49F7051F0F8019581907F26
:102FE00031F4D12C0AC09F7011F08823D1F3805E98
:102FF0008830B8F3C8010E948311FD2CA7CF43137A
:1030000006C0921304C0F801EE2009F461C0C801A3
:103010000E942B07882309F1EE20F9F08091D0015E
:10302000803270F02091CB013091CC013A8329831A
:103030001B82DD82CC828E83CE0101960E94831199
:1030400086E0F801ABECB1E001900D928A95E1F7D2
:103050000E940317FF24F39479CFC8010E948311C3
:10306000F9CF51110AC08BEC91E00E94831186E0E8
:10307000F50111928A95E9F788CF4313C8CF9213CF
:10308000C6CFE110C4CFF8018583C8010E94831127
:1030900086E0F50111928A95E9F758CFE83CF105F1
:1030A000B8F7FE2CEE20C9F243131FC092131DC0C7
:1030B0008091D00180FD10C0982F907F69F0F801B9
:1030C0008583903F31F0982F907F905F8F70892B90
:1030D0008583C8010E94831186E0F801ABECB1E062
:1030E00001900D928A95E1F731CFC8010E942B071C
:1030F0008111A6CF8091D00181608093D001C80159
:103100000E94831123CFEE2009F4A7CFC8010E94AB
:103110002B07F82E882309F4A0CF86E0F801ABEC4A
:10312000B1E001900D928A95E1F78091CB019091E9
:10313000CC010E94AF060E94031708CF81E08E25C4
:1031400013CFA7E1B0E0E7EAF8E10C94631F4B8BE3
:103150005C8B6D8B7E8B8F8B611110920C021A8AA7
:103160002C898E899F893B893D872E876F87998B14
:10317000888B86E0FE013D96DE01179601900D9248
:103180008A95E1F7CE0107960E945817882359F0D7
:1031900016E0809102029091D101891349C067968F
:1031A000E3E00C947F1F86E0FE013796DE01119666
:1031B00001900D928A95E1F74A855B85411551058D
:1031C00039F37F816885862F87238F3F09F320910C
:1031D000D10130E0C901019687709927E091020280
:1031E000E817190671F40E94800C1092D101109218
:1031F000020286E0EBECF1E0DF011D928A95E9F72F
:10320000C7CF79836A835D834C8396E0929FD00118
:10321000939FB00D1124AE52BE4FFE013196019026
:103220000D929A95E1F78093D1010E946906B0CF83
:10323000819FC00111248E529E4F0E9458178823EF
:1032400009F4ADCF8091020290E001968770992732
:10325000809302029ECF90E080E00E940D20883E85
:103260009E4F51F00E941211809177028470896202
:10327000809377020E94200886E090E00E9405205B
:1032800080937702803320F0877088628093770282
:1032900090917702892F817090FF04C0892F8695C5
:1032A000869586950E94850308951F920F920FB60A
:1032B0000F9211242F933F934F935F936F937F93BC
:1032C0008F939F93AF93BF93CF93DF93EF93FF932E
:1032D000D091E900DF708091EC00C82FC17080FDB3
:1032E000C0E81092E9008091F000877F8093F000A1
:1032F00078940E948C0C1092E9008091F000886014
:103300008093F000CD2BCF70C093E900FF91EF9137
:10331000DF91CF91BF91AF919F918F917F916F91ED
:103320005F914F913F912F910F900FBE0F901F9083
:1033300018951F920F920FB60F9211242F933F935F
:103340004F935F936F937F938F939F93AF93BF93AD
:10335000EF93FF938091E10082FF09C08091E2002A
:1033600082FF05C08091E1008B7F8093E100809116
:10337000DA0080FF24C08091D80080FF20C08091B7
:10338000DA008E7F8093DA008091D90080FF9BC0A5
:1033900080E189BD82E189BD09B400FEFDCF81E0F5
:1033A0008093930280918602811109C00E94860158
:1033B0000E9451028091E20084608093E20080913B
:1033C000E10080FF17C08091E20080FF13C0809170
:1033D000E2008E7F8093E2008091E2008061809322
:1033E000E2008091D80080628093D80019BC85E00B
:1033F000809393028091E10084FF29C08091E200D4
:1034000084FF25C080E189BD82E189BD09B400FE49
:10341000FDCF8091D8008F7D8093D8008091E1000E
:103420008F7E8093E1008091E2008F7E8093E200A6
:103430008091E20081608093E20080919402882371
:1034400009F447C084E080939302809193028091B5
:10345000E10083FF27C08091E20083FF23C08091B9
:10346000E100877F8093E10082E0809393021092D5
:1034700094028091E1008E7F8093E1008091E200D0
:103480008E7F8093E2008091E20080618093E20071
:1034900042E060E080E00E941F028091F0008860BE
:1034A0008093F000FF91EF91BF91AF919F918F9129
:1034B0007F916F915F914F913F912F910F900FBE30
:1034C0000F901F90189519BC1092930210928602CB
:1034D00076CF8091E30087FD02C081E0B4CF83E026
:1034E000B2CF78941F921FB61F9211248F939F938F
:1034F000AF93BF9380917F0290918002A09181024F
:10350000B09182020196A11DB11D80937F0290931C
:103510008002A0938102B0938202BF91AF919F91EC
:103520008F911F901FBE1F9018951F921FB61F925C
:1035300011248F939F93AF93BF9380917E0281114B
:1035400013C080917F0290918002A0918102B0917E
:1035500082024196A11DB11D80937F02909380024B
:10356000A0938102B0938202BF91AF919F918F91FE
:103570001F901FBE1F901895CDB7DEB72F970FB6BF
:10358000F894DEBF0FBECDBF85B7806885BF85B715
:10359000806885BF84B7877F84BF0FB6F894A895ED
:1035A00080916000886180936000109260000FBE7F
:1035B00080E890E00FB6F8948093610090936100EA
:1035C0000FBE86E394E090939901809398010E9446
:1035D00086010E9451028091E20084608093E200A3
:1035E0007894809193028823A1F01091E9001F70D4
:1035F0009091EC00892F817090FD80E8182B10923B
:10360000E9008091E80083FD0E948C0C1F701093EC
:10361000E90082E084BD93E095BD9AEF97BD809369
:103620006E001092410210924202109243021092D8
:10363000440255985D9889B185FB882780F980936D
:103640003B010E94EC0781110E94F11D80913B011A
:1036500081112CC085E0EBE4F1E0DE0117960190CA
:103660000D928A95E1F78F8180933601888580934A
:1036700037018985809338018A85809339018B854C
:1036800080933A0186E0E1E5F1E0DE0111960190D8
:103690000D928A95E1F7FE013196A0E3B1E0CE01EB
:1036A000079621912D93E817F907D9F780913B01EF
:1036B00095E0811190E09093500285E0891B809302
:1036C0004F0206E311E0D8018D918D018F3F11F07B
:1036D0000E943804B1E00B331B07A9F700E311E0A7
:1036E00066E3E62E61E0F62EF80181918F018F3FAF
:1036F00011F00E943804E016F106B1F78AE0E9E51E
:10370000F2E0DF01282F1D922A95E9F7E5E4F2E0C7
:10371000DF011D928A95E9F790E080E00E940D207C
:10372000883E9E4F11F00E94121182E090E00E94AC
:103730000520809363020E9459089093560280935B
:10374000550283E090E00E940520282F30E050E0F1
:1037500040E02C873D874E875F87CA01B9010E94F0
:10376000750C259A2D9882E88093800089E18093DA
:1037700081008FEF9FEF90938700809386000E94D7
:103780002B190E942B1990913B0181E0982790936F
:103790007202382F391B3093580290913B0180936D
:1037A000730290913B018093570280913B018111FC
:1037B00006C087EF8093490186EF809348012091EE
:1037C0004901E22FE295EF70F0E061A12F7081E0F6
:1037D00090E0AC0101C0440F2A95EAF7342F3095F0
:1037E000362331A322A1242B22A320914801E22FCA
:1037F000E295EF70F0E031A12F7001C0880F2A959B
:10380000EAF7982F9095932391A392A1892B82A3F5
:103810008FE891E00197F1F700C00000109173026A
:1038200064E772E049E451E088E4E82E81E0F82E94
:10383000FB0128C0DA012D91AD01822F82958F7096
:1038400090E0DC0190968C9190E02F7002C09595ED
:1038500087952A95E2F78170D7019D917D01292FE7
:1038600022952F7030E0D90190962C9130E09F7016
:1038700002C0359527959A95E2F790E020FD92E0F9
:10388000892B81938E2F861B8117A0F20E94EC0753
:10389000811102C00E94F41D8CE391E090937B02A1
:1038A00080937A0208E110E030E4632E43E6E42ED0
:1038B00042E0F42E54E0C52ED12C8091930290E189
:1038C000A92E22E1B22E853009F482C00E94F309AC
:1038D00081110E941A03A9E5B2E0E4E6F2E0B12CFE
:1038E000A12C5A2C8D908191881509F482C08825CD
:1038F000712C99249394992D982309F475C00E94F2
:10390000EC07882399F079825A82892081E009F4B2
:1039100080E08B830E9437038160782F9D838C83A6
:1039200049815A816B818D810E94A118F501EC5962
:10393000FD4F8081982690820E94EC07812C712C8B
:1039400080917302881608F46DC071100E943206CF
:103950000E940F0890917602891709F4AECF8093E8
:103960007602ABCF80919302843021F180E00E94F7
:10397000850310927E020FB6F894A895009360001C
:103980000FBE6092600083B7817F846083BF83B77E
:10399000816083BF7894889583B78E7F83BF0FB68D
:1039A000F894A895809160008861809360001092DF
:1039B00060000FBE80919202882351F00E94F309AB
:1039C000E9E5F2E0819181119EC0EE16FF06D1F784
:1039D00080919302853009F4C5CF0E94800C0E942B
:1039E0002B190E940F0872CF7394990C26E0721263
:1039F00082CF3FEFA31AB30A4AE0A416B10409F03C
:103A000070CF8FEF89838A831B820E943703816086
:103A1000782F9D838C8349815A816B818D810E948F
:103A2000A1188ACF882D90E0FC01E75BFE4F208132
:103A3000E22FE295EF70F0E0E0A1F0E02F7002C01D
:103A4000F595E7952A95E2F7E170DC01A85BBE4F9A
:103A50004C91A42FA295AF70B0E090962C9130E0DD
:103A60004F7002C0359527954A95E2F720FD49C071
:103A700020E02E2BDC01AC58BD4FEC913E2F337073
:103A80002317E9F1EE0FEE0FE22BEC939090720208
:103A9000980CEF70F0E0E857FE4FDC01A059BD4FE5
:103AA0005D0180819C91890F8C9320E0843064F0CB
:103AB000E92DF0E0E259FD4F80818F5F808360E067
:103AC000892D0E94A81021E0F50180818D3F64F4CA
:103AD000E92DF0E0E259FD4F80818150808361E063
:103AE000892D0E94A81021E0D5018C91082E000C90
:103AF000990BB6010E94AF1FF5018083722A83944F
:103B00001FCF22E0B6CFA9BCB9BC09B400FEFDCFDF
:103B10008091D8008F7D8093D8008091E0008260F2
:103B20008093E0008091E00081FDFCCF0E94800C3A
:103B30004FCF8EE1489B02C08150E1F7489BFECFFA
:103B40000895589880E28A95F1F7589A0895FC01F3
:103B50003BE03A95F1F798E020E080E031E040E189
:103B60004A95F1F7880F489B02C08160232742E005
:103B70004A95F1F7000040E14A95F1F7915079F745
:103B800090E19A95F1F799B132E03A95F1F700009A
:103B900040E14A95F1F7917092272081920F90832E
:103BA0000895A1E0B0E0E7EDFDE10C94601F1982FB
:103BB0008C017C01E60EF11C0E151F0541F481E01D
:103BC0009981911180E02196E6E00C947C1F0E947F
:103BD000991DCE0101960E94A71DF80181938F01C6
:103BE000EBCF509A589A08955098589AE89AE9E677
:103BF000F0E080818C7F808308956150770B91E0A5
:103C000001C0990F6A95EAF720E031E0911108C0F0
:103C1000222391F0589A80E28A95F1F758980895F6
:103C2000492F482339F0589A232740E24A95F1F763
:103C30009695ECCF5898F9CF5898EDCFFF920F9307
:103C40001F93CF93DF93EC018C01060F111DC0175A
:103C5000D10729F4CDB7DEB7E5E00C947D1FF990CC
:103C60000E94A11D68E08F2D0E94FD1DF0CF1F92C4
:103C70000F920FB60F9211240F931F932F933F9320
:103C80004F935F936F937F938F939F93AF93BF9364
:103C9000EF93FF93CF93DF930F92CDB7DEB71982E7
:103CA0000E94991DCE0101960E94A71D282F082F62
:103CB000069506950695982F92959570802F85709C
:103CC000980F892F837096959695890F8227877014
:103CD0009981892B09F05CC0073008F059C080E158
:103CE0008A95F1F7589A509A82E08A95F1F700C0C8
:103CF000589888E0089F80011124D801A050BF4F38
:103D00001696ED91FC9117973097A9F06091860176
:103D10007091870114962D913C911597260F371FAE
:103D200011968D919C911297680F791F13964C9163
:103D300013978C910995F801E050FF4F638166233A
:103D400051F0209186013091870184819581820F05
:103D5000931F0E941E1E0E94A11D80E18A95F1F70B
:103D600058985098589A80E18A95F1F7F801E050F8
:103D7000FF4F6081662351F02091860130918701C9
:103D800081819281820F931F0E94D11D0E94991DF3
:103D90000F90DF91CF91FF91EF91BF91AF919F91E4
:103DA0008F917F916F915F914F913F912F911F91D3
:103DB0000F910F900FBE0F901F9018950F931F93A8
:103DC000CF93DF93EC0107970CF04CC0F894509A16
:103DD000589885E08A95F1F700008C2F86958570BC
:103DE0009C2F9570890F982F93708695869523E068
:103DF000CC0FDD1F2A95E1F7890F8E01082B0E9459
:103E0000A11D00C068E0802F0E94FD1D80E18A9501
:103E1000F1F75098589A489B1EC087E090E0489967
:103E20001CC0FE01E050FF4F63816623F9F0209132
:103E300086013091870184819581820F931F0E94B2
:103E4000D11D811113C0509A589A7894DF91CF9167
:103E50001F910F91089500C0DECF019729F4509A69
:103E6000589A789480E0F2CF00C0D9CF0E94991D73
:103E700080E28A95F1F75898509A80E18A95F1F797
:103E8000C050DF4F6881662351F020918601309148
:103E9000870189819A81820F931F0E941E1E0E94B2
:103EA000A11D789481E0D2CF2F923F924F925F92E2
:103EB0006F927F928F929F92AF92BF92CF92DF923A
:103EC000EF92FF920F931F93CF93DF93CDB7DEB79F
:103ED000CA1BDB0B0FB6F894DEBF0FBECDBF099433
:103EE0002A88398848885F846E847D848C849B848A
:103EF000AA84B984C884DF80EE80FD800C811B8198
:103F0000AA81B981CE0FD11D0FB6F894DEBF0FBEC6
:103F1000CDBFED010895DB018F939F930E94FA1F9F
:103F2000BF91AF91A29F800D911DA39F900DB29F55
:103F3000900D11240895AA1BBB1B51E107C0AA1FB5
:103F4000BB1FA617B70710F0A61BB70B881F991F3A
:103F50005A95A9F780959095BC01CD01089597FBDE
:103F6000072E16F4009407D077FD09D00E949B1FFE
:103F700007FC05D03EF4909581959F4F089570956C
:103F800061957F4F0895A1E21A2EAA1BBB1BFD016C
:103F90000DC0AA1FBB1FEE1FFF1FA217B307E40728
:103FA000F50720F0A21BB30BE40BF50B661F771F80
:103FB000881F991F1A9469F7609570958095909560
:103FC0009B01AC01BD01CF010895EE0FFF1F0590CD
:103FD000F491E02D0994A29FB001B39FC001A39F6B
:103FE000700D811D1124911DB29F700D811D112432
:103FF000911D08950E94EB1FA59F900DB49F900DF9
:10400000A49F800D911D11240895F999FECF92BDB2
:1040100081BDF89A992780B50895A8E1B0E042E003
:1040200050E00C943920262FF999FECF92BD81BD26
:10403000F89A019700B4021639F01FBA20BD0FB6E6
:10404000F894FA9AF99A0FBE08950396272F0E94C2
:1040500014200E941320252F0E941420242F0C943A
:1040600014200196272F0E9414200C941320DC01A9
:10407000CB01FC01F999FECF06C0F2BDE1BDF89A73
:10408000319600B40D9241505040B8F70895FB01AD
:10409000DC0104C08D910190801921F44150504001
:1040A000C8F7881B990B0895FB01DC0102C0019041
:1040B0000D9241505040D8F70895F894FFCF690D04
:1040C000910D2B0F910D2B0FC40DE50D2B0FE40E51
:1040D000F10E31133513391347134B134F13531389
:1040E00059136113651369136D1379137D138113CC
:1040F00085138B13A91393134313711375135D1356
:084100008F139F13B213B813D3
:1041080000000001000000000000000501000000A0
:104118000000000106000000000000010700000088
:104128000408000000000000010C0000000000006E
:10413800F1F49392379431F0F5F6F7010803830709
:1041480007037E0779070603333201313292F1F40F
:104158000094979337F03300E200E900EA00B500D5
:10416800B600B700CD008301CC008A01920194010A
:104178002102230224022502260227022A02B30072
:10418800B4006F0070002F0200FF0100010000FF63
:08419800FF0000010001FF001F
:00000001FF
