:100000000C94CF020C940E280C9407030C94070355
:100010000C9407030C9407030C9407030C94070338
:100020000C9407030C9407030C9461220C941D227A
:100030000C945D230C9407030C9407030C940703A2
:100040000C9407030C9407030C9407030C94070308
:100050000C9407030C9439230C9407030C940703A6
:100060000C9407030C9407030C9407030C940703E8
:100070000C9407030C9407030C9407030C940703D8
:100080000C9407030C9407030C9407030C940703C8
:100090000C9407030C9407030C9407030C940703B8
:1000A0000C9407030C9407030C94070329001E000B
:1000B0001F002000210022002B0014001A0008005D
:1000C00015001700E00004001600070009000A00F0
:1000D000E1001D001B0006001900050000000000E3
:1000E000E200E3002C414A002A00270026002500F8
:1000F000240023003100130012000C0018001C0023
:10010000340033000F000E000D000B0035003800E6
:100110002E002D00100011000000000037003600F6
:100120002A004D0035021E021F022002260227026D
:10013000005C1E001F0020002F0030004C0001005A
:1001400050004F002F023002C15C0100010001008D
:1001500051002F0200000000010001002C002602C7
:100160002A0027022602250224022302010027007A
:10017000260025002400230031022E024F005200E9
:100180005100500001002D005B005A005900300260
:1001900000000000620001002800270235021E0254
:1001A0001F02200221022202005C1E001F0020000C
:1001B000210022004C00010050004F0052002F008F
:1001C000C15C01000100010051002F02000000008D
:1001D000010001004C0026022A0027022602250207
:1001E000240223020100270026002500240023000A
:1001F00031022E025E005D005C00300001002D0027
:100200005B005A005900300200000000620001004B
:100210004C00270245003A003B003C003D003E00F8
:10022000C35C1E021F02200221022202C45CAC0039
:10023000AB00A9004B002D02A800AD00AE00AA0043
:100240004E002D0000000000010001000100260208
:10025000440043004200410040003F0001002702EB
:1002600026022502240223023100CA5CC85CC65C57
:100270004A002E000100CB5CC95CC75C4D002E0219
:1002800000000000010001000100010000047F3FA8
:100290001F643214643214783C1E1E140A050001D7
:1002A0000101010101010101020202020202020236
:1002B0000203030303030303030404040404040408
:1002C00005050505050606060606070707070708CC
:1002D000080808090909090A0A0A0B0B0B0C0C0C7F
:1002E0000D0D0D0E0E0E0F0F0F1010111111121219
:1002F00013131414151516161717181819191A1A96
:100300001B1B1C1D1D1E1E1F2020212222232424F6
:10031000252626272829292A2B2C2D2D2E2F303132
:100320003232333435363738393A3B3C3D3E3F4044
:100330004142434445464748494A4C4D4E4F50512F
:100340005354555658595A5B5D5E5F6162646566E9
:1003500068696B6C6D6F7072737577787A7B7D7E70
:100360008082838587888A8C8E8F91939596989AC0
:100370009C9EA0A2A3A5A7A9ABADAFB1B3B5B7BAD8
:10038000BCBEC0C2C4C6C9CBCDCFD1D4D6D8DBDDAC
:10039000DFE2E4E7E9EBEEF0F3F5F8FAFDFFFFAAA0
:1003A0007F55402223252628292A2C2D2F30323311
:1003B0003536383A3B3D3E4042434547494A4C4E2C
:1003C0005051535557595A5C5E6062646668696B58
:1003D0006D6F71737577797B7D7F81838587898A5E
:1003E0008C8E90929496989A9C9E9FA1A3A5A7A864
:1003F000AAACAEAFB1B3B4B6B8B9BBBCBEBFC1C294
:10040000C3C5C6C7C9CACBCCCDCED0D1D2D2D3D426
:10041000D5D6D7D7D8D9D9DADADBDBDBDCDCDCDC44
:10042000DCDDDDDDDDDCDCDCDCDCDBDBDBDADAD912
:10043000D9D8D7D7D6D5D4D3D2D2D1D0CECDCCCB94
:10044000CAC9C7C6C5C3C2C1BFBEBCBBB9B8B6B4B2
:10045000B3B1AFAEACAAA8A7A5A3A19F9E9C9A9842
:10046000969492908E8C8A89878583817F7D7B7913
:10047000777573716F6D6B6968666462605E5C5AF4
:100480005957555351504E4C4A4947454342403EB7
:100490003D3B3A3836353332302F2D2C2A29282649
:1004A00025232205010980A101850319012AB7002E
:1004B000150126B700950175108100C0050C0901D2
:1004C000A101850419012AA002150126A0029501A7
:1004D00075108100C005010906A101050719E02971
:1004E000E7150025019508750181029501750881C0
:1004F000010507190029FF150026FF00950675085C
:1005000081000508190129059505750191029501DC
:1005100075039101C009023B00020100A0FA090421
:100520000000010301010009211101000122400026
:100530000705810308000109040100010300000010
:100540000921110100012232000705820320000168
:10055000120100020000000810CB56420004010204
:10056000000126034B0065006500620069006F0012
:1005700020004900720069007300200052006500ED
:1005800076002E002000340000000E034B006500B2
:100590006500620069006F00000004030904112473
:1005A0001FBECFEFDAE0DEBFCDBF04B603FE18C03A
:1005B0008091250390912603A0912703B0912803F1
:1005C0008730904BA740B04B59F4109225031092FE
:1005D00026031092270310922803E0E0F8E3099520
:1005E00011E0A0E0B1E0E4E6F5E502C005900D926F
:1005F000A83DB107D9F723E0A8EDB1E001C01D92F5
:10060000A532B207E1F70E9484230C94782A0C9457
:100610000000E8EDF0E080818E7F80831092E200A0
:100620001092DA001092E100A0EEB0E08C918160AF
:100630008C9380818F77808319BCA7EDB0E08C917B
:100640008E7F8C9380818F7E808310920B03089520
:100650002091E4003091E50095E6A9012091EC009D
:10066000822F817020FF06C08091E80080FF06C0C5
:1006700080E008952091E80022FD1AC080911803BF
:10068000882389F0853089F08091EB0085FD0FC0CB
:100690002091E4003091E50042175307F9F29150A0
:1006A000E1F684E0089582E0089583E0089581E012
:1006B0000895EF92FF920F931F93CF937C018B01CC
:1006C0000E942803C82F811117C08091E80085FD82
:1006D0000BC08091E8008E778093E8000E94280389
:1006E000882399F3C82F08C0F70181917F01809377
:1006F000F1000150110949F78C2FCF911F910F91F3
:10070000FF90EF90089580911A0387FF13C08091A6
:10071000E80082FF06C08091E8008B778093E800B4
:1007200004C0809118038111F2CF089580911803BD
:100730008823D9F38091E80080FFF8CF8091E8000A
:100740008E77ECCF982F9093E900242F762F50E0EE
:10075000891731F07091EC002091ED005091F0007C
:1007600021FD07C09F5F973071F78093E90081E01A
:1007700008953091EB003E7F3093EB003091ED0017
:100780003D7F3093ED003091EB0031603093EB0012
:100790007093EC002093ED005093F0002091EE0058
:1007A00027FDE0CF80E00895B0E0A0E0EAEDF3E0BF
:1007B0000C943529C8EDD0E088818F7E8883E7EDE1
:1007C000F0E080818160808384E082BF81E080935B
:1007D0000B0388818E7F888302EE10E0F80110827F
:1007E0001092DA0081EEC82ED12CF6011082888199
:1007F0008F77888388818068888388818F7D8883CC
:1008000019BC10921803109219031092170310923A
:10081000160390EEE92EF12CF70180818B7F808307
:1008200088818160888342E060E080E00E94A203CA
:10083000F60180818E7F8083F801808181608083D2
:10084000808188608083F70180818E7F80838881AA
:1008500080618883CDB7DEB7E8E00C945129FC01B4
:10086000CB0120912003309121032617370790F008
:10087000009729F42091E8002E772093E80040E0CB
:10088000009751F4411108C08091E80082FF31C007
:1008900080E00895C901F3CF209118032223A9F124
:1008A0002530A9F12091E80023FD2DC02091E8001A
:1008B00022FDEACF2091E80020FFE2CF3091F30043
:1008C0002091F200009719F02830310558F041E0EE
:1008D0002830310509F040E02091E8002E77209380
:1008E000E800CECF41914093F10001972F5F3F4F39
:1008F000E9CF80911803882341F0853041F0809141
:10090000E80083FFC1CF81E0089582E0089583E08D
:10091000089508950895089580910D0308959C0108
:100920004FB7F8948091040390910503A0910603BA
:10093000B09107034FBF821B930B0895A4E0B0E072
:10094000E4EAF4E00C943B298FB7F8942091040377
:1009500030910503409106035091070329833A83A0
:100960004B835C838FBF69817A818B819C812496C4
:10097000E2E00C9457292FB7F894809104039091EA
:100980000503A0910603B09107032FBF089520919E
:100990000103309102032817390771F09093020385
:1009A00080930103E091FF02F0910003309721F062
:1009B0000084F185E02D099508952091FD02309184
:1009C000FE022817390771F09093FE028093FD0212
:1009D000E091FF02F0910003309721F00680F7814B
:1009E000E02D09950895FC01680F791F8FEF91E3C1
:1009F0002191822728E030E087FF09C0880F8927EE
:100A000021503109C9F7E617F70791F70895880FC4
:100A1000F7CFA8E0B0E0EFE0F5E00C94372986309E
:100A2000A0F5811133C0909180009F779093800052
:100A30002D98A0918600B0918700282F30E00E9469
:100A4000D82969837A838B839C8325E030E040E05A
:100A500050E00E94A82989019A0180918600909116
:100A600087006CE070E00E94802960177107A0F099
:100A7000C80169E070E00E9480297093890060934A
:100A800088002896E6E00C94532985E09091800038
:100A9000906890938000CDCF8091860090918700E0
:100AA000E0908600F0908700E0918600F09187004A
:100AB00066E070E00E948029060F171F211D311D7E
:100AC000D901C80125E0880F991FAA1FBB1F2A95CD
:100AD000D1F789839A83AB83BC83C70166E070E05A
:100AE0000E9480299F0150E040E0260F371F411DE2
:100AF000511D69817A818B819C810E94A82929835B
:100B00003A834B835C83E0918600F0918700CA01B1
:100B1000B9010E946229DF019B01AC010E94EE290C
:100B20006D837E838F8398879B01AC0169817A8175
:100B30008B819C810E94622969837A838B839C8349
:100B4000DC01CB013FE0B695A795979587953A953F
:100B5000D1F7409186005091870070E060E048171F
:100B600059076A077B0720F48091860090918700DF
:100B7000BC0183CFFA01882311F009950895FB0188
:100B8000FCCFEDECF2E011828281846082830895D3
:100B90008091F702982F9E7F29F481708260809364
:100BA000F70208958A34E8F381708864F8CFB0E0E2
:100BB000A0E0EDEDF5E00C943129D82EC62EE90128
:100BC000E42FF0E0E256FD4F61110BC04491942FE9
:100BD000E42FE98348839A83CDB7DEB7ECE00C9429
:100BE0004D29062F10E0E49186E0D89E7001112473
:100BF0002FEF30E0C701B9010E9480298D2D90E0D0
:100C0000880F991FF5E5F69FA001F79F500D11245D
:100C1000841B950B982F990F890FA901401B510B2D
:100C2000E49FD001E59FB00D11244B2FC89E6001B9
:100C30001124CD2CDD245901AC18BD08EA9D6001BA
:100C4000EB9DD00C11249D2D4901881A9108809E9E
:100C50005001819EB00C909EB00C1124AB2CBB2493
:100C60002A193B09E29F8001E39F100D1124633094
:100C70007105D1F08CEFE81683E0F80670F461306E
:100C80007105B1F062307105B9F08FEFE816F1042B
:100C900008F09FCF9B2F412F9CCF6430710579F0D6
:100CA00066307105B9F395CF4D2D9E2FEB2F91CF67
:100CB0004E2FED2D9B2F8DCF912F4E2FF7CF9E2FA7
:100CC000E12F87CF80E00895F894E82FE295EF7048
:100CD000F0E041A18F7021E030E0B90102C0660F61
:100CE000771F8A95E2F7CB01962F9095942391A3D5
:100CF00092A1892B82A3789408959091A10292FFEA
:100D000006C0282F28712830F9F4877F846093FF6C
:100D100006C0282F28712831F1F4877E8461209144
:100D2000A20220FF06C0382F38713830D9F4877FEF
:100D3000816021FF06C0282F28712831D1F4877ED9
:100D4000816194FD877E0895282F24712430F9F65F
:100D50008B7F8860DCCF282F2471243101F78B7EB4
:100D60008861DDCF382F3171313019F78E7F88607F
:100D7000E0CF282F2171213121F78E7E8861E1CFCC
:100D80007A30A8F4663098F4E62FF0E096E0799F88
:100D9000E00DF11D11249CE3899FE00DF11D11244C
:100DA000EE0FFF1FE455FF4F85919491089580E069
:100DB00090E00895CF93DF93EC01803E910509F414
:100DC00060C050F58133910509F4A6C090F48932D2
:100DD000910509F49AC08A9709F4A5C0C130D105DC
:100DE00009F462C0CE010497813A910508F45CC011
:100DF00054C089339105F1F182389105D9F1C59735
:100E000009F47CC0C83AD10508F094C0C53AD105B0
:100E100028F3A497D06448C0843E910509F453C0D8
:100E200068F4823E9105E1F1833E910509F440C0EA
:100E3000CE01805E9109089780F536C0863E910507
:100E400009F44CC0873E910509F44DC0811523E596
:100E5000920708F095C0811532E5930708F0FDC0B0
:100E6000811540E2940708F074C08F3F910551F25C
:100E700048F21AC08091A1028370B1F0C0EED0E0B8
:100E800013C08091A10280FD10C19091A20290FF39
:100E90000BC0C3EED0E084FF07C0D0E0C0E004C0C8
:100EA0008091A10282FDF5CFCE01DF91CF9108950F
:100EB0008091A10282FDFCC09091A20290FDDECF44
:100EC00084FFF2CFEACF8091A20281FFEDCF809123
:100ED000A102C7EED0E084FDE0CFE6CF8091A10271
:100EE00083FDF7CFE1CF8091A10283FDE4C0909113
:100EF000A20291FFE5CFC4EED0E0D6CF8091A1024F
:100F000085FFD2CFC9E2D0E0CFCF8091A10285FF8B
:100F1000CBCFC5E3D0E0C8CF8091A10286FFC4CF7C
:100F2000CAE2D0E0C1CF8091A10286FFBDCFC1E36C
:100F3000D0E0BACFCF3BD10508F07ACFC85AD0E085
:100F4000CC0FDD1FCD58DE4F0990D881C02DD46461
:100F5000ABCFC11581E5D80770F4C11590E5D9076D
:100F600008F05EC0CE0190548115904108F095CFF5
:100F7000DF70D06A99CFDC2FCC27C16FD06A94CFB5
:100F8000811539E59307A0F5811548E5940708F028
:100F900079C0C11585E5D807C8F4C11594E5D9070E
:100FA00008F06BC0CE018370992721E030E002C0C9
:100FB000220F331F8A95E2F7C695C69540E2C49F7B
:100FC000E0011124C22BD32BDA686ECFCE019555E8
:100FD0008F3F910511F008F060CF8C2F0E947D06A5
:100FE000C82FD0E0DC2FCC27CC27DF71D0625CCFBC
:100FF000C1158AE5D80708F44AC0CE01905681157C
:10100000904208F04ACF8D2F8F710E947D0690E0AC
:10101000982F882788279F719C012C2BE901E6CF08
:10102000CE0174E0969587957A95E1F783702C2F21
:1010300026952695237040E2249F90011124382B99
:101040008C2F8370C1E0D0E002C0CC0FDD1F8A95E9
:10105000E2F7C22BD32BDC6827CF8370992721E0DE
:1010600030E002C0220F331F8A95E2F7C695C6957D
:1010700080E2C89FE0011124ECCFDC2FCC27C46FA5
:10108000D06A12CFD82FCC27C06FD06A0DCF8C2F4B
:101090008F700E947D0634E0D695C7953A95E1F7AA
:1010A000CF70DC2FC82FD069FFCEC9E3D0E0FCCED3
:1010B000C2EED0E0F9CEC6EED0E0F6CE0E949E049D
:1010C000089580914E02811110924E020895982F3A
:1010D000909580914D02892380934D020895ECED07
:1010E000F1E09191891303C0DF0111971C9291E007
:1010F000E23EF907B1F70895ACEDB1E0EFEF90E013
:101100002D91821751F0EF3F19F4211101C0E92F01
:101110009F5F9630A9F7EF3F09F408950E2E000C5B
:10112000FF0BE652FE4F8283089580914202909118
:101130001102981301C008958F5F8770FACFB0E055
:10114000A0E0E5EAF8E00C9434298C01C0909D02FF
:10115000D0909E02E0909F02F090A00280914F02FA
:1011600090915002A0915102B0915202C82AD92AFE
:10117000EA2AFB2ACFE1D0E0BC2ED701C6010C2E13
:1011800004C0B695A795979587950A94D2F780FDE8
:1011900009C0219788F7B12C8B2DCDB7DEB7E9E0D8
:1011A0000C945029B8018C2F0E94C0060E94DA06C8
:1011B000019779F3F1CFCF93DF93D82FC92F0E94F6
:1011C0009F086D2F7C2F0E94C0060E94DA06DF91D7
:1011D000CF910895292F9A3080F5863070F590E0F0
:1011E00036E0239F800D911D1124682F677023E046
:1011F000969587952A95E1F725E0289FF001299F8C
:10120000F00D1124ED51FE4F50E040E080E02191BF
:1012100030E0062E02C0369527950A94E2F7217039
:101220003327042E01C0220F0A94EAF7822B4F5F66
:101230005F4F4530510559F7089580E00895292FF3
:101240009A30A0F5863090F590E036E0239F800D2F
:10125000911D1124282F277041E001C0440F2A95C9
:10126000EAF723E0969587952A95E1F725E0289FF0
:10127000F001299FF00D1124ED51FE4F30E020E0E8
:1012800070E05191DF011197CB01022E02C09695BB
:1012900087950A94E2F781708195852784238527B5
:1012A0008C932F5F3F4F2530310559F70895FC018E
:1012B000808191810E94DB08282F92959F70963043
:1012C00091F060F4925F9F70923030F481E0203FA3
:1012D00081F030F4283E30F080E008959A5FF3CF3B
:1012E000243FD1F7089581E0283EE0F3213FA1F7A4
:1012F000F9CF08958093080370930A03609309035C
:1013000080911803843001F582E08093E9008FEF2B
:101310009091E800815095FD06C095ED9A95F1F702
:1013200000008111F5CF8091E80085FF0DC050E0ED
:1013300040E063E070E088E093E00E945903809110
:10134000E8008E778093E8000895BC0184E00E9455
:101350007A090895BC0183E00E947A090895CF9329
:10136000DF93D82FC92F81E08093E9008FEF909110
:10137000E800815095FD06C095ED9A95F1F70000C3
:101380008111F5CF8091E80085FF16C050E040E064
:1013900068E070E08D2F9C2F0E9459038091E80037
:1013A0008E778093E80088E0ED2FFC2FAEE0B3E06D
:1013B00001900D928A95E1F7DF91CF9108956091A8
:1013C00061018091F70280FF20C08091600143E0BD
:1013D000849FC00111248D529D4F569A2BB12F7BB3
:1013E0003BB130645FB7F894FC01649FE00DF11DE0
:1013F0001124BF0168177907D1F45FBF8FE594E02E
:101400000197F1F700C0000008958091620190916A
:10141000630123E0829FF0011124ED52FD4F8917F3
:10142000A0F61182108212828F5F3396F8CFFC01F2
:101430004191CF01E8E03BB9000000C047FF2BB964
:10144000440F000000C000C000C02BB900C0EA95E6
:1014500091F7D0CF0F931F93CF93DF93EC0110E060
:1014600000E0909164019017110609F06CF40E945D
:10147000DF098C8190E00196817099278C83DF9140
:10148000CF911F910F91089520916201A801420F01
:10149000511D9A01220F331F240F351F2D523D4F2E
:1014A0004C816091F9028091F8029695901711068F
:1014B00051F04CF0442349F04091FA020E94D705C4
:1014C0000F5F1F4FCECF4423B9F340E0F7CFAEE01C
:1014D000B0E0EDE6FAE00C9437298D879E87AD8564
:1014E000BE8514961C91212F30E0D9010E94D82985
:1014F0009B01AC010E94EE2969837A838B839C83D4
:10150000E0E2F0E0E11BF109A5E5B0E09B01AC01F0
:101510000E94EE2969877A878B879C879F01DF016C
:101520000E94D0296D837E838F8398879B01AC01B5
:101530000E94F9299B01AC0169817A818B819C8190
:10154000260F371F481F591F69857A858B859C8513
:101550000E94A829F22E822F90E079E2721740F1C2
:1015600083E0289F9001112435952795122F10951F
:1015700000E085E5E82EEF1880916401081738F146
:101580000E94DF09AD85BE8514969C9181E0992368
:1015900019F0903219F48FEF80935F0180915F0111
:1015A000890FED85FE8584832E96E6E00C94532901
:1015B00025E530E0D901A81BB90B9D01220F331F8F
:1015C0002A0F3B1F37FFD0CF2F5F3F4FCDCF8E2D40
:1015D00001FD8F2D20916201E22FE00FFF27FF1FF9
:1015E0009F01220F331F2E0F3F1F2D523D4F412FC2
:1015F0006091F9020E94D7050F5FBECFCF92DF92B4
:10160000FF920F931F93CF93DF93EC018C81811195
:1016100009C081E08C831092D10292E090935E0128
:1016200080935D01109162019091630183E0189FA6
:10163000F0011124ED52FD4F812F891778F100E060
:1016400093E0F92E60916401061770F10E94DF09A2
:1016500080915D012091D102280F2093D1029091B9
:101660005E01980F90935E01191654F4022E000C3F
:10167000330B409164014150550B2417350734F06A
:10168000819580935D01813009F41C82DF91CF91B7
:101690001F910F91FF90DF90CF90089511821082DB
:1016A00012828F5F3396C9CFC02ED12C70E0C60155
:1016B0000E949429810F482F50E02091D102022EE0
:1016C000000C330BC216D306BCF020915E01022E33
:1016D000000C330B2C153D057CF08F9D90011124DF
:1016E0002D523D4F4091FA026091F9028091F8022B
:1016F0000E94D7050F5FA6CFFA01EE0FFF1FE40F80
:10170000F51FED52FD4F118210821282F3CFB0E02F
:10171000A0E0EDE8FBE00C943229EC018A81BB24C7
:10172000BA9480FD02C0BB24B394A09064018C8164
:10173000811109C081E0B8121EC08FEF8A0D80931D
:10174000D00281E08C83F12CE12CEA14B8F00E94E5
:10175000DF098091D00291E0B91257C0811150C0C9
:101760008091640181508093D0021C82CDB7DEB796
:10177000EBE00C944E291092D002E3CF009162016D
:101780000E0D1F2D111DC801880F991F080F191F5D
:101790000D521D4FF80111821082128234E0C32EC7
:1017A000D12C912C8091D002890D8D302CF16CE0E0
:1017B0000E947229892F082E000C990B8E159F0507
:1017C00091F48091FA028C9DA0018D9D500D112401
:1017D000559547955595479598016091F9028091E7
:1017E000F8020E94D7059B0CF1E0CF1AD108D1F680
:1017F0008FEFE81AF80AA9CF87FFDDCF8A0DDBCF7C
:1018000081508093D002BC82B1CF90E0019660916C
:10181000640170E00E9494298093D0028C83A6CF4B
:10182000EF92FF921F93CF93DF93EC0110E0EE2431
:10183000EA94F12C60916401161770F00E94DF09A0
:101840009A818C8190FF27C08F5F8C83DF91CF912D
:101850001F91FF90EF90089520916201422F410F58
:101860005527551FCA019A01220F331F280F391F10
:101870002D523D4F70E0C7010E949429962F8C8114
:101880004091FA026091F902199F800D11240E9483
:10189000D7051F5FCFCF8150D8CF9091F70290FF2F
:1018A0000EC0909162012091630133E0939FF0019B
:1018B0001124ED52FD4F921718F00E94DF09089590
:1018C0008183608342839F5F3396F5CFA3E0B0E0CE
:1018D000ECE6FCE00C9439298C018091D202811154
:1018E0000AC09E012F5F3F4F4FEF6FEF0E94D70559
:1018F0008A818093D202F8016481613049F06230BC
:10190000D1F08091D20240E0662331F040E015C072
:101910006091D20240E080E00E944D0CF801848189
:1019200090E0019663E070E00E94942984832396FE
:10193000E4E00C9455294091D20280E060E0ECCFC5
:10194000A3E0B0E0E6EAFCE00C943B299091F702BA
:1019500090FF0AC09E012F5F3F4F0E94D7054B8129
:1019600069818A810E944D0C2396E2E00C945729EC
:10197000CF93DF93EC01E7EFF2E0438162818C814A
:101980000E94A00C8C818F5F8C83DF91CF91089592
:10199000CF93DF93EC01EC81F0E0ED55FC4F4491E7
:1019A000E7EFF2E0628181810E94A00C8C818F5F61
:1019B0008C83DF91CF910895B0E0A0E0E2EEFCE0EF
:1019C0000C943329F82EE92ED62EC72E8A01809149
:1019D0008C02AA24A394B12C8A3018F48AE0A82E91
:1019E000B12CC1E0D0E06D2D7C2D8F2D9E2DF80106
:1019F0000995811104C02196AC16BD062CF4CDB713
:101A0000DEB7EAE00C944F29CC9F9001CD9F300DBA
:101A1000300D112490E080E045E34A95F1F7000095
:101A2000019682179307C1F7DECF80915D02811185
:101A300010C08091D80080618093D8008AE18A9597
:101A4000F1F700C08091D90080FF0AC081E0809347
:101A50005D0281E090915D02913009F080E008958F
:101A600082E080935D020E94090310921803F1CF77
:101A70000E94150D882359F0E091FF02F0910003B8
:101A8000309729F00190F081E02D0995089580E0CC
:101A90000895A4E0B0E0EFE4FDE00C943B290E943F
:101AA000150D882371F00E949E0469837A838B83CD
:101AB0009C8369817A818B819C812496E2E00C94DD
:101AC00057290E949E0469837A838B839C8380912B
:101AD0008D0290918E02A0918F02B0919002298187
:101AE0003A814B815C81280F391F4A1F5B1F298374
:101AF0003A834B835C83DDCF0E94150D882319F058
:101B00000E94BB0408950E94490DCB010895682FDF
:101B100086E090E00E94212A0895282F220F220FAC
:101B2000220F9091FC029770922B9093FC02987F69
:101B300021E009F420E09091FC0220FB90F99093C1
:101B4000FC020E9409058091FC020E94870D089505
:101B50008091FC0280FD13C081608093FC02813083
:101B600019F489E08093FC028091FC020E94870DA9
:101B70008091FC028695869586950E9409050895B8
:101B8000CF9384E090E00E940D2AC82F82E290E07B
:101B90000E940D2A982F8C2FCF9108956091F70203
:101BA000669570E04BE050E082E591E00E94552A96
:101BB000892B19F481E08093CE020E947C0D9093D2
:101BC000C8028093C7028091CF0284608093CF02C5
:101BD00008950F931F93CF93DF938B01D82FC92FB5
:101BE0000E94C805A8016D2F7C2F88E090E00E941C
:101BF000332ADF91CF911F910F910895A7E0B0E0B4
:101C0000E4E0FEE00C943429082FE62EF42EC22ED8
:101C10009091F70290FF3AC0E92FE695AE2FB0E021
:101C2000AD54BE4F8C918093CD029E7F923091F542
:101C30009E012F5F3F4F802F0E94D7054B81698106
:101C40008A810E944D0C8091F802801308C0809117
:101C5000F9028E1104C08091FA028F1529F080914B
:101C6000CF0282608093CF020093F802E092F902E3
:101C7000F092FA02CC2051F06091F7027091F802D4
:101C80008091F9029091FA020E94E90D2796E9E00D
:101C90000C945029823019F4F090FA02D4CF863097
:101CA00019F40091F802CFCF8930D9F3893159F670
:101CB000E9516E2F6170B62EE695F0E0E256FC4FCA
:101CC0001491D12C60916401D61618F00E94DF099E
:101CD000BACFD19EC001112470E00E948029802FCC
:101CE000B11014C0860F20916201A22FAD0DBB2749
:101CF000BB1F9D01220F331F2A0F3B1F2D523D4F4B
:101D00004F2D6E2D0E94D705D394DCCF861BEBCFD1
:101D1000E7EFF2E0438121E1421B08F440E021E0DB
:101D2000628181810E94FE0D0895E7EFF2E0438118
:101D300021E1420F08F44FEF21E0628181810E948E
:101D4000FE0D0895E7EFF2E0628121E1621B08F4E5
:101D500060E021E0438181810E94FE0D0895E7EF5C
:101D6000F2E0628121E1620F08F46FEF21E043812C
:101D700081810E94FE0D0895E7EFF2E0818121E06C
:101D80004381628188500E94FE0D0895E7EFF2E0E2
:101D9000818121E043816281885F0E94FE0D089568
:101DA000A4E0B0E0E6EDFEE00C943B298091FB025C
:101DB000882319F081508093FB028091F702909163
:101DC000F802A091F902B091FA02BC01CD010E9483
:101DD000E90D2496E2E00C945729A4E0B0E0E3EF8B
:101DE000FEE00C943B298091FB02833018F48F5F56
:101DF0008093FB028091F7029091F802A091F90282
:101E0000B091FA02BC01CD010E94E90D2496E2E0F6
:101E10000C945729A4E0B0E0E0E1FFE00C943B29EA
:101E20009091F70290FF33C09170811134C092609D
:101E30009093F7028091CF0281608093CF02662356
:101E400061F08091F7029091F802A091F902B091AF
:101E5000FA02BC01CD010E94E90D6091F70266957E
:101E600070E04BE050E082E591E00E94552A892B1A
:101E7000C9F00E94C10581E08093CA0220E0409130
:101E8000FA026091F9028091F8020E94FE0D2496F8
:101E9000E2E00C945729853210F09864C9CF880F7E
:101EA000982BC6CF0E94CE0DE6CF61E00E940A0FAC
:101EB00008959091F70296958FEF890F913009F46C
:101EC00084E261E00E940A0F08958091F7028695EE
:101ED0008F5F853208F081E061E00E940A0F08956B
:101EE0009091F70290FF08C09695981728F09617E2
:101EF00018F40E94650F08950E94550F0895A4E0FC
:101F0000B0E0E5E8FFE00C943B29E7EFF2E083E086
:101F1000808311828FEF828383831482ADECB2E0E1
:101F200012968C911297836012968C938081918186
:101F3000A281B381BC01CD010E94E90D2496E2E0AB
:101F40000C945729A8E0B0E0E8EAFFE00C943A29A5
:101F500040918002509181026091820270918302CF
:101F60002FB7F8948091040390910503A091060384
:101F7000B09107032FBF841B950BA60BB70B11E085
:101F800084369105A105B10578F10E94490DDC0167
:101F9000CB010296A11DB11D89839A83AB83BC83BB
:101FA000809121019091220185599D4F209120011E
:101FB000422F50E0253010F044E050E0BE016F5F4A
:101FC0007F4F0E946F2A84E090E00E94B528182F6E
:101FD000882351F00E949E046093800270938102D6
:101FE0008093820290938302812F2896E3E00C94E1
:101FF00056298F929F92AF92BF92EF92FF920F93CA
:102000001F93CF93DF937B01B901D801F701808043
:102010009180A280B3809FB7F8940091040310913F
:10202000050320910603309107039FBF0819190982
:102030002A093B09043611052105310518F4C1E0D0
:10204000442321F1C82F082E000CDD0B98E08902F3
:10205000F0011124E050FF4F8181928185599D4FFD
:10206000408150E0A417B50708F4AD010E946F2A23
:10207000CE010E94B528C82F882341F00E949E04FB
:10208000D7016D937D938D939C9313978C2FDF9144
:10209000CF911F910F91FF90EF90BF90AF909F90C5
:1020A0008F900895A8E0B0E0E8E5F0E10C943929BC
:1020B00085E0E7EFF2E0DE01119601900D928A953E
:1020C000E1F78091CD029091CE02A091CF028E8354
:1020D0009F83A88741E08885811101C040E008E026
:1020E00010E09E012F5F3F4F68E872E086E00E949B
:1020F000F90F81111092CF022896E4E00C94552933
:10210000A1E0B0E0E6E8F0E10C9439298091FC020E
:1021100080FF18C0869586958695898341E09091C9
:102120007702981301C040E001E010E09E012F5FAC
:102130003F4F64E872E085E00E94F90F2196E4E0E9
:102140000C94552980E0E9CFA1E0B0E0EAEAF0E1A3
:102150000C942D29462E4A01522EC32E3701A82E4B
:10216000880FBB08C5010E94B528D82E882309F422
:1021700076C0C50123E0880F991F2A95E1F7FC017D
:10218000E050FF4F2381422F50E0222311F041E025
:1021900050E080509F4FDC0114966D917C91655901
:1021A0007D4FCE0101960E946F2AF401408151813A
:1021B000628173812FB7F894809104039091050395
:1021C000A0910603B09107032FBF841B950BA60BAC
:1021D000B70B84369105A105B10538F4B301C801E8
:1021E0000E94F30499818917D1F1E42C042C000C8E
:1021F000FF08C7010E94B528D82E811106C0D12C36
:102200008D2D2196E0E10C944929B70183E0660FFA
:10221000771F8A95E1F7FB01E050FF4F438150E0C3
:102220006416750608F4A30160507F4FDB01149615
:102230006D917C9165597D4F852D9C2D0E946F2A53
:10224000B301C8010E94F30499818913D8CF0E9479
:102250009E04F4016083718382839383D1CFA301B1
:10226000B801852D9C2D0E946F2ACACFA5E0B0E051
:10227000ECE3F1E10C9435296B0185E0E82EF12CBB
:102280000CE612E09E012F5F3F4F43E652E061E013
:1022900080E00E94A410882349F095E0FE01319669
:1022A000AEE5B2E001900D929A95E1F795E0EEE58A
:1022B000F2E0D60101900D929A95E1F72596E8E0BB
:1022C0000C945129A3E1B0E0E8E6F1E10C94322945
:1022D0001A821982FE01339688E0DF011D928A95E9
:1022E000E9F78EE3E82E81E0F82E10E000E0CC2440
:1022F000C394D12C2EE3A22E21E0B22EF7018191BE
:102300007F018F3F09F445C0F894E82FE295EF7004
:10231000F0E021A18F70A60102C0440F551F8A95DD
:10232000E2F7CA01922F982B91A392A1809589235D
:1023300082A3789400C0E8E3F1E031E0912C219190
:102340002F3F09F46FC0A22FA295AF70B0E0909616
:102350008C9190E02F7002C0959587952A95E2F7B1
:1023600080FD60C0832F982A330FAE16BF0639F761
:10237000F701319780818F3F11F00E94640650EA87
:102380005A95F1F7E1E0F0E0EC0FFD1FE00FF11FCF
:1023900090820F5F1F4F0530110509F0AFCF4AE063
:1023A00050E0BE016F5F7F4F81E992E00E94622A98
:1023B0007C01892B49F08AE0FE013196A1E9B2E067
:1023C00001900D928A95E1F710919C02E114F104BD
:1023D00059F181E0809355020E94BB04909354020E
:1023E0008093530280915302909154020E948F0473
:1023F000059778F0A1E9B2E0E12FF0E0EA55FD4F52
:1024000086E992E02D9121938A179B07D9F71092C4
:10241000550281E090E0E114F10451F06396EBE0A5
:102420000C944E2980E09FCF809155028111DACF24
:102430000E94150DF82EE0919C02882309F493C0A8
:102440001C861B869E01235F3F4F83E0D9011D92AE
:102450008A95E9F70E2F10E00A551D4F80918C02E6
:102460008A3008F04AC046E351E1BE01655F7F4F04
:10247000C8010E94DC0C882309F44FC044E858E1ED
:10248000BE01655F7F4FC8010E94DC0C882309F400
:1024900044C042EA5FE0BE01655F7F4FC8010E9411
:1024A000DC0C8823D1F140E850E1BE01655F7F4F2D
:1024B000C8010E94DC0C882381F142E550E1BE0195
:1024C000655F7F4FC8010E94DC0C882331F11092B8
:1024D0008C0280919B0290E045E050E0BE01655F78
:1024E0007F4F8A559D4F0E94622A21E020935C0213
:1024F000892B61F5F12C8F2D91CF8091560290910F
:1025000057020E948F04843F914008F0ACCF809125
:102510005C02811112C080E081CF80918C028F3FDC
:1025200029F08F5F80938C028A3098F20E94BB045E
:102530009093570280935602EACFFE013B9685E0C6
:10254000DF011D928A95E9F710925C02A0919B022F
:10255000B0E0AA55BD4F85E0FE013B9601900D927B
:102560008A95E1F7C8CFF0E0EA55FD4F85E0ACE68B
:10257000B2E001900D928A95E1F765E070E08CE69B
:1025800092E00E94F30480936B024091C30250E0FA
:102590006091C20270E062547D4FCE010B960E94A2
:1025A0006F2A8B858093720261E070E0CE010B96FA
:1025B0000E94F30480937102C0907302D090740261
:1025C000E0907502F0907602809158029091590245
:1025D000A0915A02B0915B02C816D906EA06FB0622
:1025E000F1F0C0925802D0925902E0925A02F09251
:1025F0005B020E94150D811112C00E949E04688B1F
:10260000798B8A8B9B8BC61AD70AE80AF90AC09283
:102610008D02D0928E02E0928F02F0929002809111
:1026200077020E94090580917F02882309F473CF05
:1026300080FF0DC0809178029091F70280FF28C042
:1026400091609093F70260E086950E940A0F809156
:102650007F0281FF09C020E040917B0260917A02F5
:10266000809179020E94FE0D80917F0282FF06C058
:1026700080917E02882311F10E94CE0D80917F020D
:1026800083FF03C081E08093CA0210927F0243CF90
:102690009E7F9093F7020E94C1058091CF028160D6
:1026A0008093CF02BFEFE0E7F2E0B150E040F040AE
:1026B000E1F700C000000E94DF09C9CF0E94C105F8
:1026C000DDCF80914D0290914C02892B8093DA01ED
:1026D00090914E02992391F0892B8093DA0120E0AA
:1026E0008CED91E0FC013081019631112F5F31E0DA
:1026F000823E9307B9F721110E94610848E050E03B
:1027000064E472E08AED91E00E94622A892BA9F0CC
:1027100088E0EAEDF1E0A4E4B2E001900D928A9540
:10272000E1F7E091FF02F0910003309731F0028071
:10273000F381E02D8AED91E00995089590E080E025
:102740000E94DD0490E080E00E94C70410924C02D9
:102750000E946113089560939D0270939E0280937E
:102760009F029093A0020E949E130895A4E0B0E0FF
:10277000ECEBF3E10C94392941E050E060E070E0CB
:1027800004C0440F551F661F771F8A95D2F74095E6
:1027900050956095709580919D0290919E02A091B8
:1027A0009F02B091A0028A019B01082319232A23CA
:1027B0003B23C901B8010E94AB132496E4E00C94BA
:1027C0005529909143028095892380934302282FB5
:1027D000277091F4282F082E000C330B9217130644
:1027E00059F09091A20292FF07C085958595859535
:1027F0000E94B613109243020895CF93C091A20293
:10280000C2FB992790F9981791F080FBC2F9C09309
:10281000A2026091A10284E090E00E94212A6C2F24
:1028200082E290E00E94212A82E00E94E113CF918F
:102830000895A4E0B0E0EFE1F4E10C94392941E01F
:1028400050E060E070E004C0440F551F661F771F22
:102850008A95D2F780919D0290919E02A0919F024D
:10286000B091A0028A019B01082B192B2A2B3B2B2C
:10287000C901B8010E94AB132496E4E00C945529D9
:1028800060934F02709350028093510290935202D2
:102890000E949E13089510924D02ECEDF1E086E047
:1028A000DF011D928A95E9F70E949E130895AAE21E
:1028B000B0E0EDE5F4E10C943A298AE193E0FC0103
:1028C00001962091F100208323E082329207B9F72C
:1028D00080911B03893009F456C0C8F4823009F492
:1028E000B2C0833009F481C0813071F18091E80079
:1028F00083FF7CC280911A0390911B039A3008F0E9
:1029000075C2E92FF0E0E658F54D0C94CA298A30DB
:1029100009F488C08B3051F780911A03813231F766
:1029200080911E0390911F03892B01F78091E8008D
:10293000877F8093E8000E94830380911C0380932B
:1029400065010E944B14D2CF80911A03813A71F62F
:102950008091E800877F8093E80080911E0390912A
:102960001F03892B61F468E08EE093E070E00E9421
:102970002F048091E8008B778093E800B7CF60E068
:1029800090E080E0F3CF80911A03813209F0AECF5E
:1029900080911E0390911F03029708F0A7CF8091AA
:1029A000E800877F8093E8008091E80082FF18C0EC
:1029B0009091F3008091F200029731F48091F10040
:1029C000813011F0863021F48091F10080930D0365
:1029D0008091E8008B778093E8000E94830386CF84
:1029E000809118038111E0CF81CF80911A03813A41
:1029F00009F07CCF80911E0390911F03892B09F071
:102A000075CF8091E800877F8093E8008091E8008F
:102A100080FFFCCF809165018093F1008091E800F8
:102A20008E77D9CF80911A03813209F05FCF8091E0
:102A3000E800877F8093E8000E94830380911D0354
:102A400080930C0353CF80911A03813A09F04ECF43
:102A50008091E800877F8093E8008091E80080FF04
:102A6000FCCF80910C03D8CF803899F0823809F0E0
:102A7000BDC180911E038F70873008F0B7C180936D
:102A8000E9008091EB0085FB882780F91092E9002E
:102A900006C0809116039091170391118260909166
:102AA000E800977F9093E8008093F1001092F10086
:102AB0008091E8008E7796C1882309F484C1823022
:102AC00009F094C180911C03811187C180911E037C
:102AD0008F702FEF280F263008F088C18093E9000F
:102AE0002091EB0020FF79C1933031F48091EB000D
:102AF00080628093EB0071C19091EB0090619093A4
:102B0000EB0021E030E001C0220F8A95EAF7209324
:102B1000EA001092EA008091EB008860EACF811110
:102B200065C110911C031F778091E3008078812B91
:102B30008093E3008091E800877F8093E8000E9403
:102B400083038091E80080FFFCCF8091E3008068E0
:102B50008093E30082E0111183E08093180346C163
:102B60008058823008F042C140911C0350911D03EF
:102B70004C3D83E05807A1F583E08A838AE289838C
:102B80004FB7F894DE01139620E03EE051E2E32FC8
:102B9000F0E050935700E49120FF03C0E295EF70FE
:102BA0003F5FEF708E2F90E0EA30C0F0C7968D93B4
:102BB0009D932F5F243159F74FBF8091E800877FA5
:102BC0008093E8006AE270E0CE0101960E942F0433
:102BD0008091E8008B778093E80008C1C096E7CF2A
:102BE00020911E0330911F03852F99278330910573
:102BF00009F160F48130910509F472C0029709F07F
:102C0000F5C08BE390E0E5E1F5E029C08132910564
:102C100009F45AC0829709F0E9C02115310509F479
:102C200069C02130310509F0E1C082E390E0E3EAB8
:102C3000F4E015C0CA0199274130B1F18230910505
:102C400009F43AC0892B09F0D1C0EAE9F5E0E49132
:102C50008E2F90E0EAE9F5E0009709F4C7C02091D3
:102C6000E800277F2093E800209120033091210382
:102C70008217930708F49C0140E02115310509F003
:102C80003EC041113CC08091E80082FDA1CF8091FF
:102C90001803882309F49CCF853009F499CF8091DB
:102CA000E80083FFF0CF94CFEAE8F5E0E4918E2FBF
:102CB00090E0EAE8F5E0D0CFE2E6F5E0E4918E2F8F
:102CC00090E0E2E6F5E0C8CF2115310571F0213042
:102CD000310509F08BC089E090E0E0E4F5E0BFCF7A
:102CE00082E190E0E0E5F5E0BACF89E090E0E7E24C
:102CF000F5E0B5CF80E490E0E5EDF4E0B0CF809171
:102D00001803882309F464CF853009F461CF8091DA
:102D1000E80083FD5DCF8091E80082FDB4CF809113
:102D2000E80080FFAACF9091F3008091F200211576
:102D3000310519F08830910550F041E0089709F00D
:102D400040E08091E8008E778093E80096CF449130
:102D50004093F1003196215031090196E8CF803837
:102D600009F044C08091E800877F8093E80080915B
:102D700019038093F1009CCE811138C010911C037F
:102D80001230A0F58091E800877F8093E8001093CF
:102D900019030E948303112311F084E005C0809180
:102DA000E30087FDFACF81E08093180342E061ECF5
:102DB00081E00E94A20342E261EC82E00E94A20351
:102DC0008091180313C080911C03813079F481E055
:102DD000933009F080E0809317031092E90080910E
:102DE000E800877F8093E8000E9483038091E800D9
:102DF00083FF0AC08091E800877F8093E80080917C
:102E0000EB0080628093EB00AA96E3E00C945629D5
:102E10000E944B142FEF84E39CE0215080409040AF
:102E2000E1F700C0000088E19CE00FB6F894A89597
:102E3000809360000FBE90936000FFCF882321F045
:102E40000E9467080E9461130895882339F09091C9
:102E50004D02892B80934D020E94611308958823AF
:102E600009F44DC0823879F40E94380D81FF47C0C3
:102E700089E30E947C080E94611389E30E946F0825
:102E80000E9461130895833859F40E94380D80FF21
:102E900036C083E50E947C080E94611383E5EECF73
:102EA000843859F40E94380D82FF29C087E40E94BB
:102EB0007C080E94611387E4E1CF9CEF980F913A60
:102EC000E8F290E2980F983050F4877091E001C0DA
:102ED000990F8A95EAF7892F0E946708D1CF9BE561
:102EE000980F933028F490E080E00E94DD0408956C
:102EF000885A873120F490E080E00E94C70408954A
:102F0000CF93C82F8823C9F08238C9F40E94380DA6
:102F100081FD13C089E30E947C080E9461132FEF9A
:102F200031EE84E0215030408040E1F700C00000E5
:102F300089E30E946F080E946113CF91089583383E
:102F4000A1F40E94380D80FDF8CF83E50E947C0833
:102F50000E9461139FEF21EE34E0915020403040F9
:102F6000E1F700C0000083E5E4CF8438A1F40E94BB
:102F7000380D82FDE2CF87E40E947C080E94611335
:102F80008FEF91EE24E0815090402040E1F700C0A7
:102F9000000087E4CECF8CEF8C0F813A70F4ECED1B
:102FA000F1E082EE91E02191C21791F18E179F0717
:102FB000D1F78C2F0E947C08BECF80E28C0F883026
:102FC00068F4C77021E030E001C0220FCA95EAF72B
:102FD00080914D02822B80934D02ADCF8BE58C0FFB
:102FE000833038F42C2F2452330BC9010E94DD04A6
:102FF000A4CFC85AC73108F0A0CFEC2FF0E0EE0FF5
:10300000FF1FED58FE4F808191810E94C70495CF2C
:103010008C2F0E946F080E946113CBCFCF93C82FD3
:103020000E9480178C2F0E942F17CF910895FF9236
:103030000F931F93CF93DF93C62FD42F122FFC0132
:1030400082818823A9F0609324030E94BB0490939B
:10305000230380932203C77081E001C0880FCA95C3
:10306000EAF70E942517CDB7DEB7E5E00C945429A6
:1030700080912403681330C0809122039091230330
:103080000E948F04883C910538F500E20D0FCD17A2
:10309000A9F0C770FF24F3948F2D01C0880FCA9543
:1030A000EAF70E941E17083048F48D2F877001C080
:1030B000FF0C8A95EAF78F2D0E942517812F0E9419
:1030C0000E18083080F6D77081E001C0880FDA95BD
:1030D000EAF70E941E17C7CFC77081E001C0880FB2
:1030E000CA95EAF7F6CF811108C089EA611101C0DB
:1030F0008AEA0E940E1880E008958130E1F78EE49C
:103100006111F7CF8BE4F5CFA1E0B0E0EAE8F8E198
:103110000C943429EE24E394F12C02E712E09E0192
:103120002F5F3F4F47E652E063E082E00E94A41029
:10313000082F882339F1D12C80E01DC0C090A50252
:10314000CD0C2C2D30E0A90142545D4F7A01E1E015
:10315000F0E0EC0FFD1FED0DF11D1081FA019081E3
:10316000191BB12E1B149CF0912F17FD90E0191B19
:10317000111118C0D3949091A402D916F8F28111BC
:103180000E945E08802F2196E9E00C945029BA94A1
:10319000F70180818F5F808360E08C2D0E9473181F
:1031A000802FE0CF1F5FF70180818150808361E035
:1031B0008C2D0E947318802FDBCF68EE7EEF90E09D
:1031C00080E00E943F2A60E082E090E00E94212A95
:1031D00060E083E090E00E94212A10924F0210925A
:1031E0005002109251021092520260E084E090E08E
:1031F0000E94212A64E082E290E00E94212A60E09D
:1032000085E090E00E94212A60E086E090E00E9444
:10321000212A6FEF87E090E00E94212A40E050E0F1
:10322000BA0188E090E00E94332A60E08DE090E0EF
:103230000E94212A40E050E0BA0188E190E00E941B
:10324000332A60E087E190E00E94212A40E050E0CC
:10325000BA018CE190E00E94332A70E060E080E2E5
:1032600090E00E943F2A40E050E0BA0188E190E0FF
:103270000E94332A0E94A80D83E00E948D0DE7EF83
:10328000F2E080818160808386950E94550F21E065
:103290004FEF6FEF80E00E94FE0D8BE00E94550F14
:1032A00040E050E0BA018FE090E00E94332A40E015
:1032B00050E0BA0183E190E00E94332A0895A9E02A
:1032C000B0E0E5E6F9E10C9432297C01DC011396CB
:1032D0008D919C911497892B39F08C9111969C912A
:1032E00089238F3F09F044C62996EBE00C944E29C0
:1032F0000E949F08182F682F89819A810E941F09B8
:1033000069817A81812F0E94C0068C01F701828138
:103310000E3AFDE51F0771F10F3A2DE5120709F48A
:1033200049C0811197C0043FECE51E0709F45BC159
:1033300008F03DC1093D2CE5120709F450C128E20F
:1033400041E00A3D3CE5130709F44BC1083D4CE55B
:10335000140709F440C1811194C00631ECE51E0741
:1033600009F078C28091E201811172C289E20E9463
:103370006F085CC1882359F061E083E090E00E940F
:10338000212A61E070E080E090E00E94401480918A
:103390004302877009F4A8CFD70112968C91882335
:1033A00009F4A2CF8091A20282FF9ECF82E00E9408
:1033B000E1139ACF882361F181E00E941914809172
:1033C0009D0290919E02A0919F02B091A002AC013B
:1033D000BD014670552766277727463051056105A0
:1033E000710541F4AC01BD0148604E835F8368877D
:1033F000798707C08C019D01077F0E831F83288773
:1034000039876E817F81888599850E94AB13BFCFF4
:1034100081E00E94B61380919D0290919E02A0913E
:103420009F02B091A002AC01BD01467055276627EE
:103430007727463051056105710541F49C01AD01C6
:1034400028602E833F8348875987DBCFAC01BD01BD
:10345000477FCBCF0F3B5CE5150709F483C008F02D
:1034600042C00D3B7CE5170709F45CC00E3B8CE5C0
:10347000180709F45BC085E00C3B9CE5190709F4CB
:1034800052C01092240302368DE5180761F008F04F
:10349000D0C00631ACE51A0708F0B1C00230BCE577
:1034A0001B0708F4CBC00E94C00D9093A20280932A
:1034B000A1020631FCE51F0708F012C102302CE51D
:1034C000120708F000C16091A1021091A20284E0ED
:1034D00090E00E94212A612F82E290E00E94212A3E
:1034E0000E944B1454CF003CACE51A0709F44EC0BF
:1034F000013CBCE51B0709F016CF9091FC02892F17
:103500008695869586958F5F8F719770863008F0C7
:103510004BC0880F880F880F892B8093FC02809105
:10352000FC020CC080E00E948D0D31CF8091FC0226
:10353000982F987F79F088508093FC02887F91E0E3
:1035400009F490E08091FC0290FB80F98093FC02EA
:103550000E94870D8091FC028695869586950E9433
:10356000090515CF8091FC02982F96959695969512
:10357000883240F49F5F990F990F990F8770892BBC
:103580008093FC028091FC028160E0CF8091FC027C
:1035900080FF07C08E7F8093FC020E94870D80E031
:1035A000DECF0E94A80DF3CE9093FC02B8CF063F69
:1035B0005CE51507E1F0073F6CE51607E1F027E24F
:1035C00045EE64EE053F7CE5170709F0C4CEC70160
:1035D0000E941718DCCE26E241EE61EEF8CF27E21A
:1035E00045EE65EEF4CF26E241EE60EEF0CF26E246
:1035F00041EE62EEECCF27E245EE66EEE8CFC80181
:103600008B5F9C45099708F44ECF0631BCE51B073C
:10361000A9F480914D028A7A91E009F490E09093A8
:10362000E201811113C189E20E947C080E946113AA
:10363000AECE063AEDE51E0709F435CF0C354DE563
:10364000140709F425C208F00DC20F3D6CE51607FA
:1036500009F411C281E00B357DE5170709F415C2A5
:1036600001151C4509F011C10E944B14BFEFE4E3A2
:10367000FCE0B150E040F040E1F700C0000081E024
:103680008093E00080E28093D8001092C9008FE11F
:103690009EE40197F1F700C0000087E090EBDC01A9
:1036A0008093250390932603A0932703B0932803C8
:1036B00088E19CE00FB6F894A895809360000FBE57
:1036C00090936000FFCFF801E350FC458091A10288
:1036D0008160E331F10538F5EC57F54D0C94CA29BA
:1036E00004303DE5130778F40B3F4CE5140708F46C
:1036F000EACEF801EC5FFC45E830F10518F5E95633
:10370000F54D0C94CA2902365DE5150709F497C0FA
:103710009091A102892F8E7F90FF8160063A6DE51E
:10372000160709F0D0CE8093A102CDCE8091A102E0
:103730008260F9CF8091A1028460F5CF8091A102CF
:103740008860F1CF8091A20281608093A202BBCEFB
:103750008091A2028260F9CF8091A1028061E3CFC3
:103760008091A1028062DFCF8091A1028064DBCFD3
:103770000E944B148091A1028068D5CF8091A10254
:103780008C60D1CF8091A2028360DFCF8091A102B3
:103790008E7FC9CF8091A1028D7FC5CF8091A1027C
:1037A0008B7FC1CF8091A102877FBDCF8091A20284
:1037B0008E7FCBCF8091A2028D7FC7CF8091A10257
:1037C0008F7EB1CF8091A1028F7DADCF8091A1027C
:1037D0008F7BA9CF0E944B148091A1028F77A3CF3A
:1037E0008091A102837F9FCF8091A2028C7FADCF79
:1037F0008091A10282FB992790F921E0922790FB0A
:1038000082F990FB83F98FCF8091A202982F909537
:1038100091708E7F892B90FB81F997CF0E944B147A
:103820009091A102892F97FB87F980587CCF61E0A6
:103830008EE090E00E94212A46CE60E0F9CF909180
:10384000A102892F8F7E94FF80616DCF85E3ECCE3E
:1038500085E38DCD80914D028272073D7CE517078F
:1038600078F4033C9CE5190780F0F801E45CFC4522
:10387000E331F10508F077C0E156F54D0C94CA2903
:103880000E35ADE51A0709F482CDF7018281C080BB
:10389000D180882309F4FEC0C6010E949F08182F1A
:1038A000682FC6010E941F09B601812F0E94C00621
:1038B0000E94DA068C01982ED7011296BC901297BE
:1038C0001596AC90A2949FE0A92280914302877044
:1038D000C1F0CB2CBB20B1F0812F807F803421F050
:1038E00080E2800F883068F08091A20282FF09C0D8
:1038F00082E00E94E113809143028770CC24C3943C
:103900008111C12CD12ED2948FE0D822B8E0DB16E1
:1039100009F4B6C1BD1508F4F5C0E3E0ED1508F4EF
:10392000BEC0812F807F1F70F1E0FD1508F0FEC042
:10393000803211F01295107F992009F42CC151E0CA
:10394000951609F465C1BB2009F46FC1AA2009F4DA
:1039500065C1D70115968C91159780FFFDC08F70BA
:1039600015968C935BC18091F70280FF26C08E7FF5
:103970008093F7020091F7021091F8022091F9026A
:103980003091FA020E831F8328873987C901B80155
:103990000E94E90D0E94C1058091CF028160809351
:1039A000CF021FEF20E732E0115020403040E1F716
:1039B00000C000000E94DF09EACC81608093F7021A
:1039C00086950E94550FE3CC49E55FE065E67FE010
:1039D0000E94BA05DCCC45E65FE069E57FE0F8CF00
:1039E0004CEB5EE066EC7EE0F3CF46EC5EE06CEB29
:1039F0007EE0EECF42EA5EE06FEA7EE0E9CF4FEA9A
:103A00005EE062EA7EE0E4CF48E85EE065E97EE001
:103A1000DFCF45E95EE068E87EE0DACF40ED5EE0CA
:103A20006DEE7EE0D5CF4DEE5EE060ED7EE0D0CF76
:103A300081E0C7CF65E082E00E94700FA8CC68E00B
:103A400086E0FACF6EE089E0F7CF64E18FE0F4CF53
:103A500067E185E1F1CF88E1B4CF62E289E1ECCFA3
:103A600083E2AFCF0D35100749F0083A1D4509F044
:103A70000CCF0E9408170E94DD18FBCF8091A20294
:103A800082FB882780F991E089270E94FD13FDCEF3
:103A900080E0FBCFC6010E94EA08182F05CF24E082
:103AA000D21609F4D3C0AD2DA850BB0B149710F457
:103AB0000E94380DCC20A9F08091430280FD11C0F6
:103AC000F70112828595859585950E941914C70185
:103AD0000E945F19809143028595859585950E9486
:103AE000B61385E0F701DE01119601900D928A95DB
:103AF000E1F709811A81C8010E94EA08B8010E9411
:103B0000C006F2CB39E0D31609F4A8C186E08D0DCA
:103B10008F70823040F6802F42EF9412AEC1812F19
:103B20008F71B110A7C10E941914BDCF882311F065
:103B30001295107F802FBB20B9F0112369F090E21D
:103B4000900F983010F0011109C080914D02182B90
:103B500010934D020E946113802F2DC080914C0262
:103B6000182B10934C02F6CF0E942F17112309F443
:103B70009ACF005E083010F0911004C0812F0E948F
:103B8000670806C0109580914C02182310934C02D0
:103B90000E94611388CF2091A20222FD16C0BB2093
:103BA00069F0112339F080914D02182B10934D02CA
:103BB0000E94611380E00E94801775CF80E00E9410
:103BC0002F17112309F46FCFD9CFBB20A1F090910B
:103BD0004E02812F892BA11003C00E94251763CFAD
:103BE00061E0A612FACF22FF5ECF981709F45BCFEF
:103BF00080934E0258CFA11006C00E946108812F09
:103C00000E941E1750CF71E0A71609F44CCFF5CFD4
:103C1000BB2031F085E08A1508F445CF812FDDCF38
:103C200094E09A1508F43FCFEACFAA2041F3093374
:103C300049F4BFEFE7EEF3E0B150E040F040E1F7C8
:103C400000C00000802F0E942F172DCF812F869556
:103C50008695837061F0813009F025CFC80193709B
:103C6000B11002C090E080E00E94C7041CCFC801E0
:103C70009370B11002C090E080E00E94DD0413CF89
:103C8000812F837009F072C0B1100DCF202F2295C3
:103C900026952770220F220F402F4F7050E070E0C2
:103CA00060E0022E04C0440F551F661F771F0A9460
:103CB000D2F780E090E0DC0104FF0FC08FE090E0DD
:103CC000A0E0B0E004C0880F991FAA1FBB1F2A956F
:103CD000D2F780959095A095B095E12FE695E69561
:103CE000E370E23051F1E33009F100914F0210919D
:103CF00050022091510230915202E13099F0842B10
:103D0000952BA62BB72BAC01BD0140235123622379
:103D100073234E835F8368877987CB01BA010E9442
:103D20004014C1CE402B512B622B732B8A019B0177
:103D3000082B192B2A2B3B2B12C0842B952BA62B3F
:103D4000B72B40914F0250915002609151027091F7
:103D500052028C019D0104271527262737270E8341
:103D60001F8328873987C901B801D9CF8695BB2021
:103D700011F0812F8170882309F495CE202F229590
:103D800026952770220F220F402F4F7050E070E0D1
:103D900060E0022E04C0440F551F661F771F0A946F
:103DA000D2F780E090E0DC0104FF0FC08FE090E0EC
:103DB000A0E0B0E004C0880F991FAA1FBB1F2A957E
:103DC000D2F780959095A095B095E12FE695E69570
:103DD000E370E23081F1E330F9F000919D0210913F
:103DE0009E0220919F023091A002E13089F0842B45
:103DF000952BA62BB72BAC01BD0140235123622389
:103E000073234E835F8368877987CB01BA0110C023
:103E1000402B512B622B732B8A019B01082B192BF2
:103E20002A2B3B2B0E831F8328873987C901B801B2
:103E30000E94AB1338CE842B952BA62BB72B409129
:103E40009D0250919E0260919F027091A0028C0190
:103E50009D010427152726273727E4CF1F70BB2095
:103E600029F0812F0E941914802FB7CE802F0E9435
:103E70001E17812F0E94B61316CE22EF291570F05F
:103E800030EF9316D1F041EF941691F0BB2009F476
:103E90005FC0A11061CE812F8F7145CE53EF951673
:103EA00021F164EF9612F2CF8091A20282FD32C01E
:103EB000812F8F71BB20F1F236CEBB2089F074E0E8
:103EC0007A1508F4F0CD1F7181E090E0A0E0B0E039
:103ED00004C0880F991FAA1FBB1F1A95D2F7AFCF36
:103EE00025E02A1508F4DFCDEECF60E070E0CB01CD
:103EF000BB2009F49DCF1F7181E090E0A0E0B0E00D
:103F0000AC01BD0104C0440F551F661F771F1A95F1
:103F1000D2F777CFBB2089F01F71812F0E9419142F
:103F20008091A20282FF07C058E0159FC0011124B2
:103F3000836080934302812FF6CD81E00E94E113DC
:103F400061E06A1508F0AFCD82E00E94E113ABCDCD
:103F5000AA2059F0893309F075CE7FEF87EE93E000
:103F6000715080409040E1F76BCE812F8F7182CFEE
:103F700085E0F701DE01119601900D928A95E1F737
:103F8000D70112962C9189819A812111B1C90E9481
:103F9000EA08182FB5C91F93CF93DF9380911002C1
:103FA000807F09F049C080910D02882309F444C044
:103FB00080914202D091110260910B0270910C022B
:103FC000A0910E02B0910F02C62FC72316E0D8179A
:103FD00099F190E0109711F0CF3F19F40196877096
:103FE000F6CF189F9001199F300D1124F901EE5E54
:103FF000FD4F41814713F2CF40814613EFCF4281FD
:104000004111ECCF438154814A1B5B0B483C510565
:1040100028F7809110028F70806180931002F9015F
:10402000E95EFD4F80818F70806180838BE092E03C
:104030000E945F190E949508DF91CF911F9108950A
:10404000ABE0B0E0E6E2F0E20C9433298C0185E0CD
:10405000F801DE01179601900D928A95E1F7F801BB
:10406000E2808BE0A82E82E0B82E60910E02709163
:104070000F026115710509F40EC190910B02409178
:104080000C02842F89238F3F09F405C120813181DF
:10409000C380D480F0900D02F601E61BF70BFF20E1
:1040A00009F4C4C080911002582F507FE83CF105FC
:1040B00008F09FC051116BC0FE2C431314C0921323
:1040C00012C0E11010C08F70806180931002C50192
:1040D0000E945F1980911002F80185838F2D2B9625
:1040E000EAE00C944F29C114D10429F0822F8323D4
:1040F0008F3F09F0EBC080E0F82FF170DF2EE091E8
:1041000042024091110256E080FD1CC0EE2031F3C6
:1041100080911002816080931002F12CDFCF8E2FEE
:1041200090E05E9FF0011124EE5EFD4F6181361339
:1041300006C06081261303C06281E612E7CFFC014E
:104140003196E770E413EBCF2F8338878F81988502
:104150000E94DB08292F22952F70903260F0225F99
:104160002F70223078F49F7051F0F8019581907F84
:1041700031F4D12C0AC09F7011F08823D1F3805EF6
:104180008830B8F3C8010E945F19FD2CA7CF4313F4
:1041900006C0921304C0F801EE2009F461C0C80102
:1041A0000E945709882309F1EE20F9F0809110024E
:1041B000803270F020910B0230910C023A832983F7
:1041C0001B82DD82CC828E83CE0101960E945F1914
:1041D00086E0F801ABE0B2E001900D928A95E1F73C
:1041E0000E94CB1FFF24F39479CFC8010E945F196E
:1041F000F9CF51110AC08BE092E00E945F1986E06E
:10420000F50111928A95E9F788CF4313C8CF92132D
:10421000C6CFE110C4CFF8018583C8010E945F19A1
:1042200086E0F50111928A95E9F758CFE83CF1054F
:10423000B8F7FE2CEE20C9F243131FC092131DC025
:104240008091100280FD10C0982F907F69F0F801D6
:104250008583903F31F0982F907F905F8F70892BEE
:104260008583C8010E945F1986E0F801ABE0B2E0E7
:1042700001900D928A95E1F731CFC8010E9457094C
:104280008111A6CF80911002816080931002C80135
:104290000E945F1923CFEE2009F4A7CFC8010E9426
:1042A0005709F82E882309F4A0CF86E0F801ABE087
:1042B000B2E001900D928A95E1F780910B02909106
:1042C0000C020E94DB080E94CB1F08CF81E08E25E4
:1042D00013CFA7E1B0E0EFE6F1E20C943A294B8B63
:1042E0005C8B6D8B7E8B8F8B611110924C021A8AC6
:1042F0002C898E899F893B893D872E876F87998B73
:10430000888B86E0FE013D96DE01179601900D92A6
:104310008A95E1F7CE0107960E942020882359F064
:1043200016E08091420290911102891349C067966C
:10433000E3E00C94562986E0FE013796DE011196E3
:1043400001900D928A95E1F74A855B8541155105EB
:1043500039F37F816885862F87238F3F09F320916A
:10436000110230E0C901019687709927E09142025D
:10437000E817190671F40E944B1410921102109262
:10438000420286E0EBE0F2E0DF011D928A95E9F758
:10439000C7CF79836A835D834C8396E0929FD00177
:1043A000939FB00D1124AE5EBD4FFE01319601907A
:1043B0000D929A95E1F7809311020E949508B0CF73
:1043C000819FC00111248E5E9D4F0E942020882372
:1043D00009F4ADCF8091420290E001968770992751
:1043E000809342029ECF90E080E00E941B2A883E8C
:1043F0009E4F51F00E94DD188091FC02847089620A
:104400008093FC020E94870D86E090E00E940D2AB6
:104410008093FC02803320F0877088628093FC02D6
:104420009091FC02892F817090FF04C0892F86959E
:10443000869586950E94090508951F920F920FB6E2
:104440000F9211242F933F934F935F936F937F931A
:104450008F939F93AF93BF93CF93DF93EF93FF938C
:10446000D091E900DF708091EC00C82FC17080FD11
:10447000C0E81092E9008091F000877F8093F000FF
:1044800078940E9457141092E9008091F00088609F
:104490008093F000CD2BCF70C093E900FF91EF9196
:1044A000DF91CF91BF91AF919F918F917F916F914C
:1044B0005F914F913F912F910F900FBE0F901F90E2
:1044C00018951F920F920FB60F9211242F933F93BE
:1044D0004F935F936F937F938F939F93AF93BF930C
:1044E000EF93FF938091E10082FF09C08091E20089
:1044F00082FF05C08091E1008B7F8093E100809175
:10450000DA0080FF24C08091D80080FF20C0809115
:10451000DA008E7F8093DA008091D90080FF9BC003
:1045200080E189BD82E189BD09B400FEFDCF81E053
:104530008093180380910B03811109C00E94090325
:104540000E94D4038091E20084608093E200809115
:10455000E10080FF17C08091E20080FF13C08091CE
:10456000E2008E7F8093E2008091E2008061809380
:10457000E2008091D80080628093D80019BC85E069
:10458000809318038091E10084FF29C08091E200AC
:1045900084FF25C080E189BD82E189BD09B400FEA8
:1045A000FDCF8091D8008F7D8093D8008091E1006D
:1045B0008F7E8093E1008091E2008F7E8093E20005
:1045C0008091E20081608093E2008091190388234A
:1045D00009F447C084E08093180380911803809108
:1045E000E10083FF27C08091E20083FF23C0809118
:1045F000E100877F8093E10082E0809318031092AE
:1046000019038091E1008E7F8093E1008091E200A8
:104610008E7F8093E2008091E20080618093E200CF
:1046200042E060E080E00E94A2038091F000886098
:104630008093F000FF91EF91BF91AF919F918F9187
:104640007F916F915F914F913F912F910F900FBE8E
:104650000F901F90189519BC1092180310920B031D
:1046600076CF8091E30087FD02C081E0B4CF83E084
:10467000B2CF78941F921FB61F9211248F939F93ED
:10468000AF93BF938091040390910503A09106031B
:10469000B09107030196A11DB11D8093040390936F
:1046A0000503A0930603B0930703BF91AF919F91B9
:1046B0008F911F901FBE1F9018951F921FB61F92BB
:1046C00011248F939F93AF93BF9380910303811124
:1046D00013C08091040390910503A0910603B0914B
:1046E00007034196A11DB11D809304039093050318
:1046F000A0930603B0930703BF91AF919F918F9151
:104700001F901FBE1F901895CDB7DEB72F970FB61D
:10471000F894DEBF0FBECDBF85B7806885BF85B773
:10472000806885BF84B7877F84BF0FB6F894A8954B
:1047300080916000886180936000109260000FBEDD
:1047400080E890E00FB6F894809361009093610048
:104750000FBE82E696E09093D9018093D8010E9423
:1047600009030E94D4038091E20084608093E200F8
:104770007894809118038823A1F01091E9001F70AC
:104780009091EC00892F817090FD80E8182B109299
:10479000E9008091E80083FD0E9457141F70109378
:1047A000E90082E084BD93E095BD9AEF97BD8093C8
:1047B0006E0010928D0210928E0210928F02109253
:1047C000900255985D9889B185FB882780F9809380
:1047D000430180914301882309F440C11092600194
:1047E00086E0809361010E94150D81110E94C82707
:1047F0008091430181112CC085E0E6E6F1E0DE0105
:10480000179601900D928A95E1F78F8180933E0172
:10481000888580933F018985809340018A858093B4
:1048200041018B858093420186E0ECE6F1E0DE01F8
:10483000119601900D928A95E1F7FE013196A8E359
:10484000B1E0CE01079621912D93E817F907D9F72A
:104850008091430195E0811190E090939C0285E066
:10486000891B80939B020EE311E093E4E92E91E013
:10487000F92ED8018D918D018F3F11F00E946406B1
:10488000E016F106B1F708E311E08EE3E82E81E0CF
:10489000F82EF80181918F018F3F11F00E9464067C
:1048A000E016F106B1F78AE0E6EAF2E0DF01282F30
:1048B0001D922A95E9F7E1E9F2E0DF011D928A9560
:1048C000E9F790E080E00E941B2A883E9E4F11F09D
:1048D0000E94DD1882E090E00E940D2A8093B002D1
:1048E0000E94C00D9093A2028093A10283E090E009
:1048F0000E940D2A282F30E050E040E02C873D87B1
:104900004E875F87CA01B9010E944014259A2D98ED
:1049100082E88093800089E1809381008FEF9FEF90
:1049200090938700809386000E94F3210E94F321D8
:104930008091A30281113BC090E080E00E941B2A7D
:10494000883E9E4F21F00E94DD180E947F0F88E074
:1049500090E00E94152A6093F7027093F80280930A
:10496000F9029093FA028091CF0283608093CF0284
:104970006E7F71F40E947F0F88E090E00E94152AFC
:104980006093F7027093F8028093F9029093FA0211
:104990000E94C8050E94C1058091F70280FF04C0F3
:1049A00060E086950E940A0F81E08093A3029091B7
:1049B000430181E098279093C202482F491B4093FE
:1049C000A502909143018093C3029091430180938B
:1049D000A40280914301811106C087EF80935101A9
:1049E00086EF8093500120915101E22FE295EF7004
:1049F000F0E061A12F7081E090E0AC0101C0440FB4
:104A00002A95EAF7342F3095362331A322A1242B9F
:104A100022A320915001E22FE295EF70F0E031A146
:104A20002F7001C0880F2A95EAF7982F909593234D
:104A300091A392A1892B82A38FE891E00197F1F7CE
:104A400000C000001091C30264EC72E041E551E047
:104A500080E5E82E81E0F82EFB012CC086E08093F3
:104A60006001BFCEDA012D91AD01822F82958F704A
:104A700090E0DC0190968C9190E02F7002C09595AB
:104A800087952A95E2F78170D7019D917D01292FA5
:104A900022952F7030E0D90190962C9130E09F70D4
:104AA00002C0359527959A95E2F790E020FD92E0B7
:104AB000892B81938E2F861B8117A0F20E94150DE2
:104AC000811102C00E94CB2784E491E090930003FF
:104AD0008093FF02A8E16A2E712CB0E45B2E10EBEC
:104AE000C12E12E0D12E04E0A02EB12C809118032B
:104AF00000E112E1853009F4EBC00E9462118111DE
:104B00000E949E04E6EAF2E0A1EBB2E010E000E0D1
:104B1000802EE1908D918E1509F4EBC08E25912C9D
:104B2000FF24F3949F2D982309F4DEC00E94150DF5
:104B3000882399F099828A82EF2081E009F480E04D
:104B40008B830E94BB048160782F9D838C83498175
:104B50005A816B818D810E946921F801EF54FD4FCC
:104B60008081F826F0820E94150D8091CE02882364
:104B700009F464C08091CD02E091F702E695E81B4C
:104B8000E093C902823009F0CBC0F0E0E656FD4F59
:104B9000E4910E2F10E0F8ECEF2EFCE0FF2E809158
:104BA000CA02882361F01092CA020E947C0D909381
:104BB000C8028093C7021092CC021092CB020E94CE
:104BC0007C0D9C01E091C702F091C8028E1B9F0BE7
:104BD0008F3F9F4798F58091BD028823B1F01092D6
:104BE000BD028091BB029091BC02281B390B2F3F64
:104BF0003F4758F4805D9A489093BC028093BB0273
:104C00008091CF0288608093CF028090CB029090F9
:104C1000CC02E00FF11FF093C802E093C70287ECCB
:104C200092E0F70109958091CB029091CC02892BFB
:104C300029F4892819F081E08093BD02E12C912CA0
:104C40008091C302E81608F4C5C091100E945E0866
:104C50000E94380D9091C602891709F447CF8093BE
:104C6000C60244CF80911803843021F180E00E9475
:104C70000905109203030FB6F894A895609260009E
:104C80000FBE5092600083B7817F846083BF83B77B
:104C9000816083BF7894889583B78E7F83BF0FB67A
:104CA000F894A895809160008861809360001092CC
:104CB00060000FBE80911703882351F00E9462119B
:104CC000E6EAF2E081918111F5C0CE16DF06D1F758
:104CD00080911803853009F4C5CF0E944B140E94BF
:104CE000F3210E94380D09CF9394FF0C26E0921215
:104CF00019CF0F5F1F4F0A30110509F009CF8FEF51
:104D000089838A831B820E94BB048160782F9D83E4
:104D10008C8349815A816B818D810E94692123CFC7
:104D2000863059F4F0E0E956FD4FE4910E2F10E083
:104D3000E8EBEE2EECE0FE2E32CF893061F4E69502
:104D4000F0E0EC56FD4FE4910E2F10E070E1E72EFD
:104D50007CE0F72E24CF8F3061F4E695F0E0EF563B
:104D6000FD4FE4910E2F10E067E8E62E6BE0F62E83
:104D700016CF853159F4F0E0E257FD4FE4910E2F44
:104D800010E05EEFE52E5AE0F52E09CF08E210E0C4
:104D900027E6E22E2AE0F22E883109F400CF833292
:104DA00049F4ECE8F2E00591149146E6E42E4CE07B
:104DB000F42EF5CE04EF11E03AE2E32E3AE0F32EC2
:104DC000843209F4ECCE00ED17E09AE8E92E94E085
:104DD000F92EE5CE0E2D10E0F801EF5AFE4F80813E
:104DE000E82FE295EF70F0E0E0A1F0E08F7002C0F4
:104DF000F595E7958A95E2F7E170D801A05BBE4F83
:104E00002C91A22FA295AF70B0E090968C9190E07B
:104E10002F7002C0959587952A95E2F780FD48C0CE
:104E200080E08E2BD801AC53BD4FEC919E2F937038
:104E30008917E1F1EE0FEE0FE82BEC93F090C20230
:104E4000FE0CEF70F0E0ED55FE4F00541D4F8081D9
:104E5000D8019C91890F8C9320E0843064F0EF2D71
:104E6000F0E0E254FD4F80818F5F808360E08F2D02
:104E70000E94731821E0F80180818D3F64F4EF2DCA
:104E8000F0E0E254FD4F80818150808361E08F2DFE
:104E90000E94731821E0D8018C91082E000C990B08
:104EA000B5010E949429F8018083922AE394C8CE28
:104EB00082E0B7CF09BD19BD09B400FEFDCF8091D6
:104EC000D8008F7D8093D8008091E000826080932D
:104ED000E0008091E00081FDFCCF0E944B14F8CEF1
:104EE0008EE1489B02C08150E1F7489BFECF0895B8
:104EF000589880E28A95F1F7589A0895FC013BE0B2
:104F00003A95F1F798E020E080E031E040E14A9501
:104F1000F1F7880F489B02C08160232742E04A9541
:104F2000F1F7000040E14A95F1F7915079F790E1EF
:104F30009A95F1F799B132E03A95F1F7000040E126
:104F40004A95F1F7917092272081920F90830895EE
:104F5000A1E0B0E0EEEAF7E20C94372919828C0167
:104F60007C01E60EF11C0E151F0541F481E09981CC
:104F7000911180E02196E6E00C9453290E9470275D
:104F8000CE0101960E947E27F80181938F01EBCF1D
:104F9000509A589A08955098589AE89AE9E6F0E09D
:104FA00080818C7F808308956150770B91E001C0F0
:104FB000990F6A95EAF720E031E0911108C02223A9
:104FC00091F0589A80E28A95F1F758980895492F00
:104FD000482339F0589A232740E24A95F1F79695ED
:104FE000ECCF5898F9CF5898EDCFFF920F931F93BD
:104FF000CF93DF93EC018C01060F111DC017D10771
:1050000029F4CDB7DEB7E5E00C945429F9900E945D
:10501000782768E08F2D0E94D427F0CF1F920F923F
:105020000FB60F9211240F931F932F933F934F931B
:105030005F936F937F938F939F93AF93BF93EF9300
:10504000FF93CF93DF930F92CDB7DEB719820E9403
:105050007027CE0101960E947E27282F082F0695E3
:1050600006950695982F92959570802F8570980FCC
:10507000892F837096959695890F822787709981DD
:10508000892B09F05CC0083008F059C080E18A958E
:10509000F1F7589A509A82E08A95F1F700C0589833
:1050A00088E0089F80011124D801A050BF4F1696B8
:1050B000ED91FC9117973097A9F06091A101709143
:1050C000A20114962D913C911597260F371F11962A
:1050D0008D919C911297680F791F13964C9113979D
:1050E0008C910995F801E050FF4F6381662351F0E0
:1050F0002091A1013091A20184819581820F931F9B
:105100000E94F5270E94782780E18A95F1F7589848
:105110005098589A80E18A95F1F7F801E050FF4FD6
:105120006081662351F02091A1013091A20181811B
:105130009281820F931F0E94A8270E9470270F90D0
:10514000DF91CF91FF91EF91BF91AF919F918F919F
:105150007F916F915F914F913F912F911F910F918F
:105160000F900FBE0F901F9018950F931F93CF9322
:10517000DF93EC0108970CF04CC0F894509A5898C3
:1051800085E08A95F1F700008C2F869585709C2F1D
:105190009570890F982F93708695869523E0CC0F94
:1051A000DD1F2A95E1F7890F8E01082B0E947827D1
:1051B00000C068E0802F0E94D42780E18A95F1F733
:1051C0005098589A489B1EC087E090E048991CC0B0
:1051D000FE01E050FF4F63816623F9F02091A101A9
:1051E0003091A20184819581820F931F0E94A8278C
:1051F000811113C0509A589A7894DF91CF911F91E2
:105200000F91089500C0DECF019729F4509A589A63
:10521000789480E0F2CF00C0D9CF0E94702780E25E
:105220008A95F1F75898509A80E18A95F1F7C05025
:10523000DF4F6881662351F02091A1013091A201D6
:1052400089819A81820F931F0E94F5270E947827F7
:10525000789481E0D2CF2F923F924F925F926F92DB
:105260007F928F929F92AF92BF92CF92DF92EF92F6
:10527000FF920F931F93CF93DF93CDB7DEB7CA1B77
:10528000DB0B0FB6F894DEBF0FBECDBF09942A88A2
:10529000398848885F846E847D848C849B84AA844A
:1052A000B984C884DF80EE80FD800C811B81AA81D7
:1052B000B981CE0FD11D0FB6F894DEBF0FBECDBFA2
:1052C000ED010895DB018F939F930E94EE29BF911A
:1052D000AF91A29F800D911DA39F900DB29F900D45
:1052E0001124089587FB082E062687FD819567FD0A
:1052F00061950E94012A0EF4919507FC819508950D
:10530000AA1BBB1B51E107C0AA1FBB1FA617B707EB
:1053100010F0A61BB70B881F991F5A95A9F7809507
:105320009095BC01CD01089597FB072E16F40094CB
:1053300007D077FD09D00E94802907FC05D03EF4F4
:10534000909581959F4F0895709561957F4F089531
:10535000A1E21A2EAA1BBB1BFD010DC0AA1FBB1F79
:10536000EE1FFF1FA217B307E407F50720F0A21BEB
:10537000B30BE40BF50B661F771F881F991F1A9458
:1053800069F760957095809590959B01AC01BD0182
:10539000CF010895EE0FFF1F0590F491E02D0994C1
:1053A0000E94D829332312F48A1B9B0B0C94E92901
:1053B000A29FB001B39FC001A39F700D811D112456
:1053C000911DB29F700D811D1124911D08950E94A1
:1053D000D829B7FF0895821B930B08950E94D829FE
:1053E000A59F900DB49F900DA49F800D911D112439
:1053F0000895B7FF0C94EE290E94EE29821B930BAF
:105400000895991B79E004C0991F961708F0961B20
:10541000881F7A95C9F780950895F999FECF92BDB6
:1054200081BDF89A992780B50895A6E1B0E044E0DF
:1054300050E00C94472AA8E1B0E042E050E00C9420
:10544000472A262FF999FECF92BD81BDF89A019780
:1054500000B4021639F01FBA20BD0FB6F894FA9ABC
:10546000F99A0FBE08950396272F0E94222A0E94C0
:10547000212A252F0E94222A242F0C94222A0196C9
:10548000272F0E94222A0C94212ADC01CB01FC0147
:10549000F999FECF06C0F2BDE1BDF89A319600B48D
:1054A0000D9241505040B8F70895FC0141505040D2
:1054B00030F001900616D1F73197CF010895882773
:1054C00099270895FB01DC0104C08D91019080199A
:1054D00021F441505040C8F7881B990B0895FB01F7
:1054E000DC0102C001900D9241505040D8F7089560
:1054F000F894FFCF34155C15F6165C15F6168F156B
:10550000B015F616AF16BC16961B9A1B9E1BAC1B4D
:10551000B01BB41BB81BBE1BC61BCA1BCE1BD21BA9
:10552000DE1BE21BE61BEA1BF01B0E1CF81BA81B74
:10553000D61BDA1BC21BF41B041C171C1D1CE41C0D
:10554000EB1CF01CF51CFA1CFF1C041D091D0E1D94
:10555000131D181D1A1D1F1D221D251D281D2B1D65
:045560002D1D301DB0
:105564000000000100000000000000050100000030
:105574000000000106000000000000010700000018
:105584000408000000000000010C000000000000FE
:10559400080D000000000000F1F49392379431F0FC
:1055A400F5F6F7018C04AF098B04AA09A50989044F
:1055B400333201191A1B1C1D1E1F20212201020156
:1055C400000C000C0C01313292F1F40094979337E3
:1055D400F03300E200E900EA00B500B600B700CD00
:1055E400008301CC008A0192019401210223022448
:1055F400022502260227022A02B300B4006F0070BB
:10560400006B0200FF0100010000FFFF0000010029
:1056140001FF000001020202020606060909090947
:1056240009090F0F0F0F0F0F15151518191919194F
:08563400191919191919232491
:00000001FF
